:020000040800F2
:10000000D80600208901000883100008C30D0008ED
:1000100081100008A3020008291200080000000057
:10002000000000000000000000000000B9110008FE
:10003000BD0200080000000085100008D311000870
:10004000A3010008A3010008A3010008A301000800
:10005000A3010008A3010008A3010008A3010008F0
:10006000A3010008A3010008A3010008A3010008E0
:10007000A3010008A3010008A3010008A3010008D0
:10008000A3010008A3010008A3010008A3010008C0
:10009000A3010008A3010008A3010008A3010008B0
:1000A000A3010008A3010008A3010008A3010008A0
:1000B000A3010008A3010008A3010008A301000890
:1000C000A3010008A3010008A3010008A301000880
:1000D000A3010008A3010008A3010008A301000870
:1000E000A3010008A3010008A301000800F002F822
:1000F00000F03AF80AA090E8000C82448344AAF188
:100100000107DA4501D100F02FF8AFF2090EBAE885
:100110000F0013F0010F18BFFB1A43F0010318473B
:100120000812000028120000103A24BF78C878C1D5
:10013000FAD8520724BF30C830C144BF04680C60ED
:10014000704700000023002400250026103A28BF35
:1001500078C1FBD8520728BF30C148BF0B60704739
:100160001FB51FBD10B510BD00F058F81146FFF7C0
:10017000F7FF01F085F800F076F803B4FFF7F2FF1F
:1001800003BC00F07DF8000009488047094800479B
:10019000FEE7FEE7FEE7FEE7FEE7FEE7FEE7FEE737
:1001A000FEE7FEE704480549054A064B7047000094
:1001B00027120008ED000008D8000020D806002013
:1001C000D8020020D80200204FF0000200B51346EC
:1001D00094469646203922BFA0E80C50A0E80C5067
:1001E000B1F12001BFF4F7AF090728BFA0E80C5018
:1001F00048BF0CC05DF804EB890028BF40F8042B11
:1002000008BF704748BF20F8022B11F0804F18BF7D
:1002100000F8012B7047704770477047754600F033
:100220002BF8AE4605006946534620F00700854688
:1002300018B020B5FFF7B6FFBDE820404FF000062C
:100240004FF000074FF000084FF0000B21F00701BE
:10025000AC46ACE8C009ACE8C009ACE8C009ACE801
:10026000C0098D46704710B50446AFF300802046A4
:10027000BDE81040FFF781BF0048704778000020BC
:1002800001491820ABBEFEE726000200704710B5FA
:10029000142000F009FF0321BDE81040142000F0F5
:1002A0008CBFFEE770B50C46054600F0FDFE20EA67
:1002B00004012846BDE8704000F0B8BF7047000058
:1002C00070B5044600F004F90546601C02D00448ED
:1002D0000078044400F0FCF8401BA042FAD370BD43
:1002E000000000202DE9F84FDFF8B8910024A9F1B3
:1002F000040B23460F2709F1040AABF1040EC9E0F1
:100300000125A5402A40AA427DD1674ED1F804C0FC
:10031000ACEB0608B44532D014DCBCF1030F3AD084
:1003200009DCBCF1000F2AD0BCF1010F1CD0BCF1DC
:10033000020F31D11DE0BCF1110F17D0BCF1120F2B
:100340002AD119E0B8F5881F19D006DCB8F5803F2E
:1003500015D0B8F5801F1FD111E0B8F5001F0ED0E1
:10036000B8F5041F18D10AE0CB6815E0CB681B1D57
:1003700012E0CB6808330FE0CB680C330CE08B68DD
:100380002BB1012B4FF0080303D0456104E0042397
:1003900002E0056100E00023FF2A01D8064601E0E3
:1003A00000F104064FEA840501D9A5F12005D6F82D
:1003B000008007FA05FC28EA0C0803FA05F548EA6C
:1003C0000508C6F800804D68ED0062D5374DAE696E
:1003D00046F00106AE61AD6924F0030605F00105A3
:1003E0000095334D06EB050CDCF80850A607360FD8
:1003F00007FA06F825EA0805DFF8B880404503D17A
:100400004FF0000817E044E0DFF8AC80404502D12F
:100410004FF001080FE0DFF8A480404502D14FF013
:10042000020808E0DFF89880404502D14FF0030849
:1004300001E04FF0040808FA06F848EA0508CCF88D
:1004400008804D68D9F80060ED024D4601D516438D
:1004500000E096432E604D68DAF80060AD02554624
:1004600001D5164300E096432E604D68DBF800602E
:10047000AD035D4601D5164300E096432E604D68FE
:10048000DEF80060ED03754601D5164300E09643A3
:100490002E60641C0D682A46E5407FF431AFBDE84C
:1004A000F88F000008040140000011100010024005
:1004B0000000014000080140000C01400010014014
:1004C000001401400AB1016170470904FBE7000014
:1004D00001488068704700000000002002488168E1
:1004E000027811448160704700000020074810B571
:1004F000016841F010010160032000F067F80F204F
:1005000000F006F800F024F8002010BD00200240A2
:1005100070B50D4D04464FF47A712878B1FBF0F0B8
:100520000A490968B1FBF0F000F037FC48B9102C1B
:1005300007D200222146501E00F028F800206C60EF
:1005400070BD012070BD0000000000200C000020E4
:100550000C4808B5816941F001018161816901F0B0
:1005600001010091C16941F08051C161C06900F091
:10057000805000900448416821F0E06141F0007132
:10058000416008BD0010024000000140F0B40E4B75
:100590001B680C46C3F30223C3F10705042D00D9E1
:1005A0000425191D072901D2002300E0DB1E0126C6
:1005B00006FA05F1491E214099409E40761E1640DC
:1005C0003143F0BC00F04CBE0CED00E0064900F0F9
:1005D000070208684FF6FF03184040EA0220034A6A
:1005E00010430860704700000CED00E00000FA05C1
:1005F0002DE9F0470F46050061D0434E306800F00A
:100600000700B84209D2306820F007003843306054
:10061000306800F00700B84251D128683B4C810790
:1006200012D5400703D5606840F4E0606060287828
:10063000000703D5606840F4605060606068A96896
:1006400020F0F000084360602878C00728D0686870
:10065000012810D02168022810D0890700292EDA3D
:10066000616821F0030101436160FFF731FF8046BB
:1006700041F288390DE021688903EFE78901EDE750
:10068000FFF726FFA0EB0801494502D90320BDE88A
:10069000F0876068696800F00C00B0EB810FEFD163
:1006A000306800F00700B8420BD9306820F007002E
:1006B00038433060306800F00700B84201D00120B4
:1006C000E5E72878400705D56068E96820F4E06030
:1006D000084360602878000706D56068296920F41F
:1006E000605040EAC100606000F018F86168084A94
:1006F000C1F30311515CC840064908600648006810
:10070000FFF706FF0020C2E7002002400010024071
:10071000161300080C000020040000200E4A516847
:100720000E4801F00C03042B11D0082B0FD10C48FC
:10073000C1F38343C903C05C0AD55168084AC1F3B9
:100740004041921E515C054A5043B0FBF1F07047A6
:1007500004494843704700000010024000127A002C
:100760000613000800093D002DE9F84F040070D081
:100770002078C04DC00749D06868C0F381000128C7
:1007800007D06868C0F38100022809D16868C003F7
:1007900006D52868800339D560680028E7D035E0A1
:1007A0006068B0F5803F0BD010B1B0F5A02F11D02C
:1007B000286820F480302860286820F4802002E037
:1007C000286840F480302860606890B1FFF780FEB0
:1007D00006460AE0286840F480202860F0E700BF61
:1007E000FFF776FE801B642873D828688003F7D54E
:1007F0000CE0FFF76DFE064605E000BFFFF768FE60
:10080000801B6428F0D828688003F7D420789A4E9B
:1008100080074FF001094FF0000839D5686810F0E3
:100820000C0F07D06868C0F38100022809D16868FE
:10083000C00306D42868800714D52069012808D190
:1008400010E02069B0B1C6F80090FFF741FE0746FE
:1008500005E00AE1FFF73CFEC01B0228C4D8286867
:100860008007F7D52868616920F0F80040EAC100E8
:1008700028600DE0C6F80080FFF72AFE074604E076
:10088000FFF726FEC01B022823D828688007F7D46C
:10089000207800072CD57948A169D9B1C0F800901B
:1008A000FFF716FE074604E0FFF712FEC01B022802
:1008B0000FD8686A8007F7D571484FF4FA5100687D
:1008C000B0FBF1F0009000BF0098411E0091FAD2F9
:1008D0000EE080E0C0F80080FFF7FAFD074604E074
:1008E000FFF7F6FDC01B022875D8686A8007F7D4A9
:1008F0002078400760D5E8690027C00008D4E8697F
:1009000040F08050E861E869012700F080500090D5
:100910005C480168C90513D40168834641F48071BD
:100920000160FFF7D5FD824606E000BFFFF7D0FD6E
:10093000A0EB0A0064284ED8DBF80000C005F5D50E
:10094000E06801280AD008B1052813D0286A20F0F1
:1009500001002862286A20F0040002E0286A40F0C2
:1009600001002862E06841F2883B98B1FFF7B0FDD2
:1009700082460BE0286A40F004002862EEE700BFE0
:10098000FFF7A6FDA0EB0A0159455AD8286A80074F
:10099000F6D50CE0FFF79CFD824605E0FFF798FDD9
:1009A000A0EB0A0159454CD8286A8007F6D41FB13C
:1009B000E86920F08050E861E06988B36968C1F3B4
:1009C0008101022944D00228C6F8608004D0FFF7D4
:1009D0007FFD044638E034E0FFF77AFD074604E087
:1009E000FFF776FDC01B02282BD828688001F7D4BA
:1009F000206AB0F5803F05D16868A16820F4003016
:100A000008436860D4E908010843696821F4741157
:100A100008436860C6F86090FFF75AFD044606E098
:100A200025E000BFFFF754FD001B022809D8286805
:100A30008001F7D51BE000BFFFF74AFD001B02282D
:100A400002D90320BDE8F88F28688001F4D40EE0B5
:100A50000128F7D06868226A00F48031914204D1FD
:100A6000616A00F47010884201D00120EAE700209A
:100A7000E8E70000001002400000424280044242C9
:100A80000C0000200070004070B5040009D0606ABE
:100A9000002540B125616561A56294F8510040B11F
:100AA0000CE0012070BD6068B0F5827FF4D0E56194
:100AB000F2E784F85050204600F040F8022084F815
:100AC00051002068016821F040010160A08821895F
:100AD00000F4827001F404410843A18901F400612B
:100AE0000843217C01F002010843217D01F001014E
:100AF0000843218B01F400710843217F01F0380184
:100B0000084394F8201001F080010843218D01F47E
:100B10000051084321680860A069042101EA1040DF
:100B2000216848602068C16921F40061C161656580
:100B3000012084F85100002070BD000030B585B060
:100B4000002400940194029403940068144988429C
:100B500023D11448816941F480518161816901F494
:100B600080510491816941F00401816180690E4DD9
:100B700000F004000490A0200090022001900320C7
:100B8000039069462846FFF7ADFB4020CDE90004FD
:100B9000694628460294FFF7A5FB05B030BD00006A
:100BA0000030014000100240000801402DE9FF4FD5
:100BB00081B0044690F8500000260E9F1D469346D3
:100BC0004FF0010901280FD04FF0010A84F850A01E
:100BD000FFF77EFC804694F85100616801280DD033
:100BE000B1F5827F08D103E0022005B0BDE8F08FA7
:100BF000A16809B9042801D00226C9E0029800289A
:100C000065D0BBF1000FFBD0002DF9D094F8510056
:100C1000042802D0052084F8510000206065C4F843
:100C200038B0E587A58702992163E586A58620640B
:100C3000606420680168490603D4016841F04001FE
:100C40000160E068B0F5006F606803D0F0B3012D7B
:100C500047D081E008B1012D3CD1206B216800888C
:100C6000C860206B801C2063E08E401EE08631E06F
:100C70002068816889070FD5E18E69B1B9F1010F4C
:100C80000AD1216B0988C160206B801C2063E08E33
:100C9000401EE0864FF0000920688168C9070CD02B
:100CA000E18F51B1C068A16B0880A06B801CA0636C
:100CB000E08F401EE0874FF00109FFF709FCA0EB31
:100CC0000800B84206D3781C04D001E009E05BE0DC
:100CD00003265BE0E08E0028CAD1E08F0028C7D150
:100CE00040E0206B216800780873206B401C206373
:100CF000E08E401EE0862FE02068816889070FD5CE
:100D0000E18E69B1B9F1010F0AD1216B0978017344
:100D1000206B401C2063E08E401EE0864FF00009EF
:100D200020688168C9070CD0E18F51B1C068A16B00
:100D30000870A06B401CA063E08F401EE0874FF05E
:100D40000109FFF7C5FBA0EB0800B84202D3781CED
:100D500002D0BAE7002FB8D0E08E0028CCD1E08FC7
:100D60000028C9D142463946204600F0B9F918B1E9
:100D70000126202060650BE0A06818B92068C168D2
:100D800080680090606D08B1012601E084F851A0F0
:100D9000002084F85000304627E710B5401EB0F11F
:100DA000807F01D3012010BD4FF0E02460610F214E
:100DB000601700F055FA0020A06107202061002094
:100DC00010BDFEE77CB50446002529460D2000F045
:100DD0002DFA932020702020607001A823460090F7
:100DE000022219460C2000F057F8010009D1225CBC
:100DF000401C5540C0B20428F9D3205CA84200D062
:100E0000022108467CBD000010B5012210211348C4
:100E1000FFF758FB012211461148FFF753FB00F082
:100E200037F88D212A2000F001FA3E212B2000F016
:100E3000FDF91E212D2000F0F9F900212C2000F0F1
:100E4000F5F94021152000F0F1F93D21112000F0C5
:100E5000EDF9BDE81040FFF71ABA000000080140A4
:100E6000000C01407CB50C46054607210D2000F022
:100E7000DDF9257001A823460090012219460C20B7
:100E800000F00AF810B90199102900D002207CBDA9
:100E90000F21012000F0CAB92DE9FF5F00270225CC
:100EA000DDF838A016468B468146B8460C2805D09A
:100EB000B9F10E0F05D11227102001E0772730205D
:100EC000804647F08001022000F0B0F98021042024
:100ED000FFF7E8F980210A2000F06FF900210120D6
:100EE00000F0A4F9002405E01BF80410092000F02C
:100EF0009DF9641CB442F7D34946012000F096F9ED
:100F0000B9F10C0F03D180210D2000F056F94FF4F8
:100F1000FA66042000F0C8F80446761E04D0E00704
:100F200002D114EA080FF4D080210D20FFF7BAF99E
:100F300036B1062000F0B8F810F01B0F04D00225DF
:100F400004B02846BDE8F09F00253C40E00700D0F3
:100F50000125B9F10C0FF3D10A2000F0A5F80446E1
:100F60000C2000F0A1F810F007004FEAC40101D0F6
:100F700008390144CAF8001024B1102C04D91024F7
:100F8000002603E00124FBE7002605E0092000F02D
:100F90008BF803998855761CA642F7D3D0E700005A
:100FA0002DE9F04385B00024214800940194029477
:100FB0000394816941F010018161816901F01001A0
:100FC0000491816941F020018161816901F0200172
:100FD0000491816941F0040181618069DFF85480E6
:100FE00000F004004FF400550490002229464046CA
:100FF000FFF768FADFF840904FF404770022394693
:101000004846FFF75FFA0095022601250396CDE9D1
:10101000015469464046FFF765F900970396CDE90C
:10102000015469464846FFF75DF905B0BDE8F08315
:101030000010024000100140000801400F4810B5A8
:101040000D4901604FF48271416000218160C160EF
:101050004FF400720161C0E905121022C0E90721B6
:10106000416281620A21C162FFF70EFD002801D0B2
:1010700072B6FEE710BD00000030014010000020F5
:10108000FEE7FEE77047000001B582B064200090E3
:10109000012301AA02A90348FFF788FD9DF8040077
:1010A0000EBD00001000002070B50C4D044600225B
:1010B00010212846FFF706FA7E2000EA440040F09F
:1010C0008000FFF7E1FF0020FFF7DEFF044601226A
:1010D00010212846FFF7F6F9204670BD00080140B0
:1010E00038B50B46009204460022802100F008F833
:1010F000002804D0606D40F020006065032038BDFA
:101100002DE9F8431E46914688460446089DFFF7A0
:10111000DFF9401B351AFFF7DBF907462548006861
:10112000C0F3CB30684338E0701C37D0FFF7D0F9FC
:10113000C01BA84203D215B1009860B32CE0206810
:10114000416821F0E00141606068B0F5827F0BD119
:10115000A068B0F5004F02D0B0F5806F04D12068D0
:10116000016821F040010160A06AB0F5005F09D17B
:101170002068016821F4005101602068016841F491
:1011800000510160012084F85100002084F85000D3
:101190000320BDE8F8830025401E00902068816888
:1011A00038EA010004D000214945BDD10020F0E714
:1011B0000121F9E70C000020704770B50C46054688
:1011C000FFF772FF40EA04012846BDE8704000F0D6
:1011D0002DB8FFF783B910B590B028216846FEF707
:1011E000F3FF14210AA8FEF7EFFF02200090012070
:1011F000049010200024059007946846FFF7B4FA85
:1012000008B172B6FEE70F20CDE90A040C940D94E4
:1012100000210AA80E94FFF7EBF9002801D072B65E
:10122000FEE710B010BD7047FEE7000070B50B4D33
:101230000E460446002210212846FFF743F97E207F
:1012400000EA4400FFF720FF3046FFF71DFF284665
:10125000BDE8704001221021FFF734B900080140B9
:101260000907090E002804DB00F1E02080F80014D3
:10127000704700F00F0000F1E02080F8141D704767
:10128000FFF734F9FFF7A7FFFFF78AFEFFF7D6FE57
:10129000FFF7BAFD184C194F4FF4007665144FF460
:1012A000FA784FF47A7916492620FFF7DBFD0028FB
:1012B000F9D11348FFF786FD0028F4D10122314609
:1012C0002046FFF7FFF86420FEF7FAFF00223146C0
:1012D0002046FFF7F7F8002229463846FFF7F2F8D4
:1012E0004046FEF7EDFF012229463846FFF7EAF8AF
:1012F0004846FEF7E5FFD6E7000801400010014030
:1013000068000020010202030405060708090A0B11
:101310000C0D0E0F10100000000000000000010274
:101320000304060708090000481300080000002015
:1013300010000000280100085813000810000020C9
:10134000C806000044010008010000001000000071
:08135000000000000024F4007D
:04000005080000ED02
:00000001FF
