:020000040800F2
:10000000F80F0020C90100080F1C0008D7180008CD
:100010000D1C000847030008AF3600080000000070
:10002000000000000000000000000000F1200008B7
:100030006103000800000000BD1F00080B2100083C
:10004000E3010008E3010008E3010008E301000800
:10005000E3010008E3010008E3010008E3010008F0
:10006000E3010008E3010008E3010008E3010008E0
:10007000E3010008E3010008E3010008E3010008D0
:10008000E3010008E3010008E3010008E3010008C0
:1000900039360008E3010008E3010008E301000825
:1000A000E3010008E3010008E3010008E3010008A0
:1000B000E3010008E3010008E3010008E301000890
:1000C000E3010008E3010008E3010008E301000880
:1000D000E3010008E3010008E3010008E301000870
:1000E000E3010008E3010008E301000800F002F862
:1000F00000F05AF80AA090E8000C82448344AAF168
:100100000107DA4501D100F04FF8AFF2090EBAE865
:100110000F0013F0010F18BFFB1A43F0010318473B
:10012000E8360000083700000A444FF0000C10F8D1
:10013000013B13F0070408BF10F8014B1D1108BF65
:1001400010F8015B641E05D010F8016B641E01F805
:10015000016BF9D113F0080F1EBF10F8014BAD1C55
:100160000C1B09D16D1E58BF01F801CBFAD505E073
:1001700014F8016B01F8016B6D1EF9D59142D6D3CD
:10018000704700000023002400250026103A28BFF5
:1001900078C1FBD8520728BF30C148BF0B607047F9
:1001A0001FB51FBD10B510BD00F08AF81146FFF74E
:1001B000F7FF03F0A7FA00F0A8F803B4FFF7F2FF87
:1001C00003BC00F0AFF80000094880470948004729
:1001D000FEE7FEE7FEE7FEE7FEE7FEE7FEE7FEE7F7
:1001E000FEE7FEE704480549054A064B7047000054
:1001F00085210008ED000008F8090020F80F002014
:10020000F80B0020F80B002010B5203AC0F00B804E
:10021000B1E81850203AA0E81850B1E81850A0E80A
:100220001850BFF4F5AF5FEA027C24BFB1E8185064
:10023000A0E8185044BF18C918C0BDE810405FEAD4
:10024000827C24BF51F8043B40F8043B08BF704750
:10025000D20728BF31F8023B48BF11F8012B28BF55
:1002600020F8023B48BF00F8012B70474FF0000216
:1002700000B5134694469646203922BFA0E80C509C
:10028000A0E80C50B1F12001BFF4F7AF090728BF77
:10029000A0E80C5048BF0CC05DF804EB890028BFF3
:1002A00040F8042B08BF704748BF20F8022B11F01C
:1002B000804F18BF00F8012B704770477047704798
:1002C000754600F02BF8AE4605006946534620F00F
:1002D0000700854618B020B5FFF784FFBDE8204031
:1002E0004FF000064FF000074FF000084FF0000BF2
:1002F00021F00701AC46ACE8C009ACE8C009ACE8A5
:10030000C009ACE8C0098D46704710B50446AFF38C
:1003100000802046BDE81040FFF74FBF00487047FF
:100320009809002001491820ABBEFEE72600020014
:10033000704710B5142001F053FE0321BDE81040B2
:10034000142001F0D6BEFEE770B50C46054601F05C
:1003500047FE20EA04012846BDE8704003F0A8B932
:10036000704772B6FEE7000070B5044600F004F96D
:100370000546601C02D004480078044400F0FCF8F4
:10038000401BA042FAD370BD580000202DE9F84F61
:10039000DFF8B8910024A9F1040B23460F2709F1D7
:1003A000040AABF1040EC9E00125A5402A40AA4287
:1003B0007DD1674ED1F804C0ACEB0608B44532D00D
:1003C00014DCBCF1030F3AD009DCBCF1000F2AD0D9
:1003D000BCF1010F1CD0BCF1020F31D11DE0BCF10A
:1003E000110F17D0BCF1120F2AD119E0B8F5881FF0
:1003F00019D006DCB8F5803F15D0B8F5801F1FD1A5
:1004000011E0B8F5001F0ED0B8F5041F18D10AE0AE
:10041000CB6815E0CB681B1D12E0CB6808330FE0FA
:10042000CB680C330CE08B682BB1012B4FF0080329
:1004300003D0456104E0042302E0056100E00023ED
:10044000FF2A01D8064601E000F104064FEA8405C0
:1004500001D9A5F12005D6F8008007FA05FC28EAA5
:100460000C0803FA05F548EA0508C6F800804D684F
:10047000ED0062D5374DAE6946F00106AE61AD695B
:1004800024F0030605F001050095334D06EB050C3D
:10049000DCF80850A607360F07FA06F825EA080523
:1004A000DFF8B880404503D14FF0000817E044E082
:1004B000DFF8AC80404502D14FF001080FE0DFF8D3
:1004C000A480404502D14FF0020808E0DFF8988090
:1004D000404502D14FF0030801E04FF0040808FA4C
:1004E00006F848EA0508CCF808804D68D9F800609D
:1004F000ED024D4601D5164300E096432E604D684F
:10050000DAF80060AD02554601D5164300E0964387
:100510002E604D68DBF80060AD035D4601D51643E3
:1005200000E096432E604D68DEF80060ED037546EE
:1005300001D5164300E096432E60641C0D682A46E0
:10054000E5407FF431AFBDE8F88F000008040140BA
:10055000000011100010024000000140000801409E
:10056000000C014000100140001401400AB101617B
:1005700070470904FBE700000148806870470000ED
:100580005800002002488168027811448160704759
:1005900058000020074810B5016841F010010160C3
:1005A000032000F075F80F2000F006F800F024F8A2
:1005B000002010BD0020024070B50D4D04464FF4E0
:1005C0007A712878B1FBF0F00A490968B1FBF0F0C4
:1005D00001F06DF948B9102C07D200222146501EB7
:1005E00000F036F800206C6070BD012070BD000086
:1005F00058000020640000200C4808B5816941F0D3
:1006000001018161816901F001010091C16941F03D
:100610008051C161C06900F0805000900448416879
:1006200021F0E06141F00071416008BD001002401E
:1006300000000140002809DB00F01F020121914069
:100640004009800000F1E020C0F800117047000070
:10065000F0B40E4B1B680C46C3F30223C3F107052D
:10066000042D00D90425191D072901D2002300E01B
:10067000DB1E012606FA05F1491E214099409E40E5
:10068000761E16403143F0BC03F02CB80CED00E0B0
:10069000064900F0070208684FF6FF03184040EAD9
:1006A0000220034A10430860704700000CED00E090
:1006B0000000FA0510B50C0607D501F0070101EBA3
:1006C000810100EBC100283005E001EB810100EB66
:1006D000C10000F5B47099B232B1012202730181F8
:1006E000190C4181002010BD00220273C180F9E77E
:1006F000704701EB810200EBC202D0F8EC02D26B32
:1007000001F079BF01EB810200EBC202D0F8EC02EC
:10071000D2F87C2101F0D2BF70B504460B0601F07F
:10072000070000EB800104EBC1014FF001024FF024
:10073000000503D581F82920283103E081F86951AB
:1007400001F5B471087094F8A802012808D084F863
:10075000A822206802F004FC84F8A852002070BD92
:10076000022070BD70B5044601F00F00626890422F
:1007700001D9012070BD0B0601F0070000EB8001DC
:1007800004EBC1014FF001024FF0000503D581F8E1
:100790002920283103E081F8695101F5B4718D7089
:1007A000087094F8A802012808D084F8A8222068CC
:1007B00002F073FC84F8A852002070BD022070BDC6
:1007C0002DE9F05F04685FEA424C0B788D69B4F85C
:1007D00050C04FF000064BF68F7948F2800A48F679
:1007E0008F7B48F2C00E4FF480672AD54FF0020885
:1007F00008EBC308C44407EB4C07E45BC4F30904EB
:10080000A54203D32D1B8D6101D00BE08E610668DC
:1008100036F8235005EA090585F4005545EA0A052E
:1008200026F82350520609D50D78036833F82520A1
:1008300002EA0B0242EA0E0223F8252084B30A8959
:1008400029E04FF0060808EBC308C44407EB4C0747
:10085000E45BC4F30904A54203D32D1B8D6101D0D1
:100860000BE08E61066836F8235005EA090585F429
:10087000005545EA0A0526F82350520609D40B789C
:10088000056835F8232002EA0B0242EA0E0225F839
:1008900023202CB14A8949690068234602F0D6FE1C
:1008A0002046BDE8F09F2DE9F05F054600680C4644
:1008B0005FEA426C16468B692278B0F850C048F661
:1008C0008F774CF280094FF4004B4FF6FF7E4FF4C8
:1008D000806A4FF0000172D54FF0020808EBC208A1
:1008E000E0440AEB480C30F80C00C0F309008342E6
:1008F00011D91B1AA3610FD0730407D52E6836F8DF
:1009000022303B4043EA090326F8223094F82420A1
:10091000012A47D052E1A161607810B1012813D0BB
:100920001AE02868B0F85030184400EB0210B0F814
:100930000424C2F30902A0F80424B0F8042442F409
:100940000042A0F8042407E02868B0F850301844AA
:1009500000EB0210A0F804146278286812B1012A92
:1009600011D018E0B0F850100844217800EB0110C5
:10097000B0F80C14C1F30901A0F80C14B0F80C1471
:1009800041F4004105E0B0F850201044227800EB1B
:100990000210A0F80C1421782846FFF7AAFE700474
:1009A00072D40BE1626902446261E2690244E2616D
:1009B0002369226A9A4203D31846111A04E03EE0E2
:1009C00084F824100AB110462162617811B101291E
:1009D00029D031E02968B1F850201144227801EB88
:1009E0000211B1F80424C2F30902A1F8042401F2AF
:1009F00004413E2807D94209C30600D1521E0B8884
:100A00004BEA822207E048B14208C30700D0521CDB
:100A10000B880EEA822213430B800DE00A8842F411
:100A200000420A8008E02968B1F850201144227879
:100A300001EB0211A1F8040483B22289BAE04FF05D
:100A4000060808EBC208E0440AEB480C30F80C003A
:100A5000C0F30900834211D31B1AA3610FD07304A2
:100A600007D42E6836F822303B4043EA090326F8C3
:100A7000223094F82420012A51D09FE0A1616078AF
:100A800018B1012814D01BE03FE02868B0F85030BE
:100A9000184400EB0210B0F80424C2F30902A0F8D5
:100AA0000424B0F8042442F40042A0F8042407E02F
:100AB0002868B0F85030184400EB0210A0F8041475
:100AC0006278286812B1012A11D018E0B0F85010ED
:100AD0000844217800EB0110B0F80C14C1F30901AF
:100AE000A0F80C14B0F80C1441F4004105E0B0F883
:100AF00050201044227800EB0210A0F80C1421784A
:100B00002846FFF7F6FD700458D42278296831F89A
:100B10002200384040EA090021F822004EE06269D4
:100B200002446261E2690244E2612369226A9A42F4
:100B300003D31846111A216204E00AB1104621625B
:100B400084F824106278296812B1012A28D02FE095
:100B5000B1F850201144227801EB0211B1F80C24B5
:100B6000C2F30902A1F80C2401F20C413E2807D976
:100B70004209C30600D1521E0B884BEA822207E0CD
:100B800048B14208C30700D0521C0B880EEA8222EB
:100B900013430B800CE00A8842F400420A8007E00D
:100BA000B1F850201144227801EB0211A1F80C0495
:100BB000628983B26169286802F066FD227829683B
:100BC00031F8220048F6BF73184080F0300048F238
:100BD0008003184321F822000020BDE8F09F2DE992
:100BE000F04104460F0601F0070000EB800104EB22
:100BF000C1014FF001064FF0000503D581F82960CF
:100C0000283103E081F8695101F5B471022B0870B5
:100C10000A61CB7000D10D7194F8A802012809D0A7
:100C200084F8A862206802F04BF8284684F8A8529D
:100C3000BDE8F0810220FBE710B501F0070404EBEA
:100C4000840100EBC101C1E95F230022C1F88421C6
:100C500081F8692181F86841006801F5B47102F0FA
:100C600071FA002010BD70B504460D4601F0070072
:100C70006168884201D9012070BD29064FF0000645
:100C80004FF0010207D500EB800104EBC10181F8B0
:100C90002920283107E005EB850104EBC10181F82B
:100CA000696101F5B4718A70087094F8A80201288E
:100CB00007D084F8A822206802F02BFA680702D037
:100CC00006E0022070BD04F52C71206802F0E3F903
:100CD00084F8A862002070BD10B501F0070404EB91
:100CE000840100EBC101C1E90F23012281F84C20EE
:100CF0008B6400234B6481F8292001F8284F006899
:100D000002F020FA002010BD1FB50446006802F072
:100D100099FC010403D5204600F07AFF1FBD410570
:100D20000DD5206830F8441F21F4806101802046F1
:100D300000F010F90021204600F027F91FBD410402
:100D400005D5206830F8441F21F4804174E0810407
:100D500005D5206830F8441F21F400516CE0C1042F
:100D600014D5206830F8401F21F00401018020686C
:100D700030F8401F21F008010180204600F0FDF806
:100D8000206830F8441F21F4805155E0010540D51A
:100D9000D4F800200020694632F8203021F81030C5
:100DA000401CC0B20828F7D332F8400F40F00100D1
:100DB0001080206830F8402F22F001020280206865
:100DC000B0F844205205FBD530F8442F22F480625D
:100DD00002800020236831F8102023F82020401CD6
:100DE000C0B20828F6D3206830F8401F41F008014F
:100DF0000180206830F8441F21F4006101802068E0
:100E000030F8401F41F004010180204600F0F2F864
:100E10001FBD810509D5206830F8441F21F40071F9
:100E20000180204600F0ADF81FBDC005FCD520684C
:100E300030F8441F21F4807101801FBD2DE9F0417D
:100E400086B0040004D094F8A902002520B108E07F
:100E5000012006B0BDE8F08184F8A852204600F0D9
:100E60005BF8032084F8A902206802F00DF904F170
:100E70001001142288466846FFF7C6F994E80F006F
:100E800002F06CF80227D0BB0021206802F0F4FBCE
:100E9000002001260EE000BF00EB800104EBC10141
:100EA00081F8296001F8280F401CCD700D614D615B
:100EB000C0B28D6161688142EED8002012E000BFAF
:100EC00000EB800104EBC10181F8695181F86801F0
:100ED00081F86B51C1F87851C1F87C51401CC0B207
:100EE000C1F8805161688142EAD8142241466846BF
:100EF000FFF78AF994E80F0002F0BDF810B184F80A
:100F0000A972A5E784F8245084F8A962206802F049
:100F1000B0F800209DE7000008B500680B49884242
:100F200012D10B48C16941F40001C161C0690022BE
:100F300000F40000009011461420FFF789FBBDE883
:100F400008401420FFF776BB08BD0000005C00409D
:100F50000010024070B5044680680125022801D0C7
:100F6000FFF7FFF92946D4F8EC0201F080FCD4F831
:100F7000EC02BDE8704001F03CBCD0F8EC0201F09E
:100F800060BCD0F8EC0201F066BC10B5044690F8E5
:100F9000A80201280BD0012084F8A80284F82410AC
:100FA000206802F06BFB002084F8A80210BD02202C
:100FB00010BDD0F8EC2200F52C71104601F063BC96
:100FC00010B5044690F8A802012810D0012084F83A
:100FD000A802206802F027FB01212046FFF788FBCA
:100FE000206802F044F8002084F8A80210BD022016
:100FF00010BD000010B50446D0F8EC0201F082FCF0
:10100000A069002804D00348016841F0060101608E
:1010100010BD000010ED00E02DE9F8430546007812
:10102000354CC00754D0E0690026C00008D4E06900
:1010300040F08050E061E069012600F080500090AF
:101040002E480168C90512D40168804641F48071B8
:101050000160FFF791FA074605E000BFFFF78CFA41
:10106000C01B642823D8D8F80000C005F6D5206A34
:1010700010F4407021D0A98801F4407181421CD045
:10108000206A1F49012220F440700A6000220A6091
:101090002062C00711D0FFF76FFA074641F2883887
:1010A00008E000BFFFF768FAC11B414502D90320E1
:1010B000BDE8F883206A8007F4D5206A696820F4C7
:1010C0004070084320621EB1E06920F08050E0616A
:1010D0002878800705D56068A96820F44040084357
:1010E00060602878C00605D56068E96820F4800053
:1010F000084360600020DBE7001002400070004001
:10110000400442422DE9F0470F46050061D0434EAE
:10111000306800F00700B84209D2306820F00700BC
:1011200038433060306800F00700B84251D1286879
:101130003B4C810712D5400703D5606840F4E0605E
:1011400060602878000703D5606840F460506060F4
:101150006068A96820F0F000084360602878C00744
:1011600028D06868012810D02168022810D089078B
:1011700000292EDA616821F0030101436160FFF765
:10118000FBF9804641F288390DE021688903EFE7D9
:101190008901EDE7FFF7F0F9A0EB0801494502D915
:1011A0000320BDE8F0876068696800F00C00B0EBD0
:1011B000810FEFD1306800F00700B8420BD93068DA
:1011C00020F0070038433060306800F00700B84274
:1011D00001D00120E5E72878400705D56068E96877
:1011E00020F4E060084360602878000706D5606856
:1011F000296920F4605040EAC100606000F018F8EE
:101200006168084AC1F30311515CC840064908608F
:1012100006480068FFF7D0F90020C2E7002002402E
:1012200000100240F6370008640000205C00002037
:101230000E4A51680E4801F00C03042B11D0082B04
:101240000FD10C48C1F38343C903C05C0AD5516870
:10125000084AC1F34041921E515C054A5043B0FB1D
:10126000F1F0704704494843704700000010024005
:1012700000127A00E637000800093D002DE9F84F1A
:10128000040070D02078C04DC00749D06868C0F312
:101290008100012807D06868C0F38100022809D1C5
:1012A0006868C00306D52868800339D560680028BF
:1012B000E7D035E06068B0F5803F0BD010B1B0F5F5
:1012C000A02F11D0286820F480302860286820F4EE
:1012D000802002E0286840F480302860606890B187
:1012E000FFF74AF906460AE0286840F480202860A3
:1012F000F0E700BFFFF740F9801B642873D8286827
:101300008003F7D50CE0FFF737F9064605E000BF8C
:10131000FFF732F9801B6428F0D828688003F7D4DF
:1013200020789A4E80074FF001094FF0000839D518
:10133000686810F00C0F07D06868C0F381000228BD
:1013400009D16868C00306D42868800714D52069CD
:10135000012808D110E02069B0B1C6F80090FFF76D
:101360000BF9074605E00AE1FFF706F9C01B022862
:10137000C4D828688007F7D52868616920F0F8008C
:1013800040EAC10028600DE0C6F80080FFF7F4F8DD
:10139000074604E0FFF7F0F8C01B022823D82868AE
:1013A0008007F7D4207800072CD57948A169D9B1F6
:1013B000C0F80090FFF7E0F8074604E0FFF7DCF81C
:1013C000C01B02280FD8686A8007F7D571484FF410
:1013D000FA510068B0FBF1F0009000BF0098411E88
:1013E0000091FAD20EE080E0C0F80080FFF7C4F868
:1013F000074604E0FFF7C0F8C01B022875D8686AEA
:101400008007F7D42078400760D5E8690027C0003E
:1014100008D4E86940F08050E861E869012700F0ED
:10142000805000905C480168C90513D40168834668
:1014300041F480710160FFF79FF8824606E000BF2B
:10144000FFF79AF8A0EB0A0064284ED8DBF80000FA
:10145000C005F5D5E06801280AD008B1052813D0E9
:10146000286A20F001002862286A20F0040002E0C7
:10147000286A40F001002862E06841F2883B98B198
:10148000FFF77AF882460BE0286A40F004002862F1
:10149000EEE700BFFFF770F8A0EB0A0159455AD8F4
:1014A000286A8007F6D50CE0FFF766F8824605E06B
:1014B000FFF762F8A0EB0A0159454CD8286A80076B
:1014C000F6D41FB1E86920F08050E861E06988B384
:1014D0006968C1F38101022944D00228C6F86080FE
:1014E00004D0FFF749F8044638E034E0FFF744F849
:1014F000074604E0FFF740F8C01B02282BD82868F5
:101500008001F7D4206AB0F5803F05D16868A168F2
:1015100020F4003008436860D4E908010843696892
:1015200021F4741108436860C6F86090FFF724F84E
:10153000044606E025E000BFFFF71EF8001B022866
:1015400009D828688001F7D51BE000BFFFF714F821
:10155000001B022802D90320BDE8F88F286880010B
:10156000F4D40EE00128F7D06868226A00F48031D4
:10157000914204D1616A00F47010884201D00120C8
:10158000EAE70020E8E700000010024000004242C5
:1015900080044242640000200070004070B50400E6
:1015A00009D0606A002540B125616561A56294F8A3
:1015B000510040B10CE0012070BD6068B0F5827F41
:1015C000F4D0E561F2E784F85050204600F040F88E
:1015D000022084F851002068016821F04001016078
:1015E000A088218900F4827001F404410843A18994
:1015F00001F400610843217C01F002010843217DD0
:1016000001F001010843218B01F400710843217F9F
:1016100001F03801084394F8201001F080010843DC
:10162000218D01F40051084321680860A06904215C
:1016300001EA1040216848602068C16921F4006116
:10164000C1616565012084F85100002070BD000073
:1016500030B585B00024009401940294039400688E
:101660001449884223D11448816941F48051816131
:10167000816901F480510491816941F00401816123
:1016800080690E4D00F004000490A020009002201C
:1016900001900320039069462846FEF777FE40201C
:1016A000CDE90004694628460294FEF76FFE05B0B6
:1016B00030BD000000300140001002400008014031
:1016C0002DE9FF4F81B0044690F8500000260E9F90
:1016D0001D4693464FF0010901280FD04FF0010A33
:1016E00084F850A0FEF748FF804694F851006168E6
:1016F00001280DD0B1F5827F08D103E0022005B0AA
:10170000BDE8F08FA16809B9042801D00226C9E01C
:101710000298002865D0BBF1000FFBD0002DF9D056
:1017200094F85100042802D0052084F851000020CC
:101730006065C4F838B0E587A58702992163E5861E
:10174000A5862064606420680168490603D40168A6
:1017500041F040010160E068B0F5006F606803D0BF
:10176000F0B3012D47D081E008B1012D3CD1206BB1
:1017700021680088C860206B801C2063E08E401EBA
:10178000E08631E02068816889070FD5E18E69B174
:10179000B9F1010F0AD1216B0988C160206B801C4F
:1017A0002063E08E401EE0864FF0000920688168CB
:1017B000C9070CD0E18F51B1C068A16B0880A06B44
:1017C000801CA063E08F401EE0874FF00109FEF708
:1017D000D3FEA0EB0800B84206D3781C04D001E089
:1017E00009E05BE003265BE0E08E0028CAD1E08FD1
:1017F0000028C7D140E0206B216800780873206B77
:10180000401C2063E08E401EE0862FE02068816847
:1018100089070FD5E18E69B1B9F1010F0AD1216BAA
:1018200009780173206B401C2063E08E401EE08627
:101830004FF0000920688168C9070CD0E18F51B1D1
:10184000C068A16B0870A06B401CA063E08F401EB5
:10185000E0874FF00109FEF78FFEA0EB0800B842C9
:1018600002D3781C02D0BAE7002FB8D0E08E00284F
:10187000CCD1E08F0028C9D142463946204600F03D
:10188000CBFB18B10126202060650BE0A06818B9D9
:101890002068C16880680090606D08B1012601E091
:1018A00084F851A0002084F85000304627E710B596
:1018B000401EB0F1807F01D3012010BD4FF0E02425
:1018C00060610F21601701F00DFF0020A06107206B
:1018D0002061002010BDFEE7F0B500230A2430256A
:1018E00037261F4611E000BFB4EB107F02D905EB8D
:1018F000107C01E006EB107C01F813C001EB430CF7
:1019000000015B1C8CF80170DBB29342ECD3F0BD9C
:101910007CB50446002529460D2001F0C9FE932020
:1019200020702020607001A82346009002221946F2
:101930000C2000F057F8010009D1225C401C5540F2
:10194000C0B20428F9D3205CA84200D00221084686
:101950007CBD000010B5012210211348FEF706FEE1
:10196000012211461148FEF701FE00F037F88D21E3
:101970002A2001F09DFE3E212B2001F099FE1E2120
:101980002D2001F095FE00212C2001F091FE402138
:10199000152001F08DFE3D21112001F089FEBDE8EA
:1019A0001040FEF7C6BC000000080140000C0140DA
:1019B0007CB50C46054607210D2001F079FE257007
:1019C00001A823460090012219460C2000F00AF8D5
:1019D00010B90199102900D002207CBD0F210120EF
:1019E00001F066BE2DE9FF5F00270225DDF838A073
:1019F00016468B468146B8460C2805D0B9F10E0F25
:101A000005D11227102001E077273020804647F0CB
:101A10008001022001F04CFE80210420FEF794FC9E
:101A200080210A2000F065FB0021012001F040FE2A
:101A3000002405E01BF80410092001F039FE641CA5
:101A4000B442F7D34946012001F032FEB9F10C0F40
:101A500003D180210D2000F04CFB4FF4FA660420E6
:101A600000F0BEFA0446761E04D0E00702D114EA64
:101A7000080FF4D080210D20FEF766FC36B1062059
:101A800000F0AEFA10F01B0F04D0022504B0284677
:101A9000BDE8F09F00253C40E00700D00125B9F1EA
:101AA0000C0FF3D10A2000F09BFA04460C2000F042
:101AB00097FA10F007004FEAC40101D00839014439
:101AC000CAF8001024B1102C04D91024002603E019
:101AD0000124FBE7002605E0092000F081FA0399C4
:101AE0008855761CA642F7D3D0E700002DE9F043D5
:101AF00085B00024214800940194029403948169E4
:101B000041F010018161816901F010010491816946
:101B100041F020018161816901F020010491816916
:101B200041F0040181618069DFF8548000F0040015
:101B30004FF400550490002229464046FEF716FD5A
:101B4000DFF840904FF40477002239464846FEF70C
:101B50000DFD0095022601250396CDE90154694645
:101B60004046FEF713FC00970396CDE90154694601
:101B70004846FEF70BFC05B0BDE8F08300100240BC
:101B800000100140000801400F4810B50D490160E8
:101B90004FF48271416000218160C1604FF4007296
:101BA0000161C0E905121022C0E90721416281628A
:101BB0000A21C162FFF7F2FC002801D072B6FEE7ED
:101BC00010BD0000003001406801002010B5002267
:101BD0000B490C4800F0E8FC08B1FEF7C2FB0A49CB
:101BE000084800F0B5FE08B1FEF7BBFB054800F061
:101BF00005FF002803D0BDE81040FEF7B2BB10BDC2
:101C000008000020D00100206C000020FEE7FEE765
:101C10002DE9F84F044640F68F7B48F60F794FF4D4
:101C200080684FF0000AC0E1B0F8441011F00F05D1
:101C300039D030F8256031047ED530F8251001EA1E
:101C40000B0141F0800120F8251005EB850004EB25
:101C5000C00797F8740107F5B47700286DD0F878BD
:101C600002286BD03978226832F8210048F68F7349
:101C7000184048F2C003184322F821003978206840
:101C800030F82120B0F8503052047DD5022202EB0A
:101C9000C1015A1808EB4201415A8905890D00918A
:101CA00073D03A89DFE0C9062DD4018801EA090121
:101CB00041F400410180206804F12805B0F850305B
:101CC0002978022202EBC1015A1808EB4201405A5E
:101CD000C0F309006064E16B0844E0630021204622
:101CE000FEF707FD94F8240000289CD0A86900287E
:101CF00099D194F82400216840F08000A1F84C00AC
:101D000084F824A051E1018804F5B4750A0521D5B1
:101D1000B0F850202B78062101EBC3010A4408EBF0
:101D20004201405A04F52C71C0F30903EB61EA88C3
:101D3000206801F08BFC02E0B0E070E080E02068F9
:101D4000018801EA0B0141F0800101802046FFF784
:101D500030F92AE10904D5D5018801EA0B0141F0E7
:101D6000800101802068B0F850202B78062101EB1B
:101D7000C3010A4408EB4201405A83059B0DEB6105
:101D800010D0696971B101E061E05FE0EA88206824
:101D900001F05CFCE969686908446861002120463B
:101DA000FEF7B0FC216808880205ABD4C0F301300F
:101DB0000328A7D0B1F850000844B0F80C14C1F3C0
:101DC0000901A0F80C142A6900F20C403E2A09D936
:101DD0005109D20600D1491E02884FF4004343EA5C
:101DE000812109E0B2B15108D20700D0491C028814
:101DF0004FF6FF7303EA81210A43028021680888B5
:101E00004BF68F72104080F4405048F2800210432D
:101E10000880CAE0018841F400410180EEE72068B3
:101E2000B0F850203B78062101EBC3010A4408EBCF
:101E30004201415A8905890D009118D0FA8812E0B3
:101E4000324639462046FEF7BBFC00900FE00622E2
:101E500002EBC1015A1808EB4201415A8905890D6C
:101E6000009104D07A897969009B01F0EFFBF86951
:101E700000990844F8617969009808447861B86964
:101E800018B139690098814204D939782046FEF7A3
:101E900039FC03E03946206801F054F930062FD5AB
:101EA00005EB850004EBC001206830F8252002EA2C
:101EB000090242F4004220F8252091F82B00283135
:101EC00001281ED0F0056CD42068B0F850300D7891
:101ED000022202EBC5021A4408EB4202805A8A69C8
:101EE000C0F30900824255D9121A8A6154D04A6956
:101EF00002444A61CA691044C861206801F022F9AD
:101F000053E0C1F818A0087B524608B3700620D5EC
:101F1000487810B1012812D03AE02068B0F850207B
:101F200010440A7800EB0210B0F80424C2F309024E
:101F3000A0F80424B0F8042442F4004206E020682B
:101F4000B0F8503018440B7800EB0310A0F80424CC
:101F50001EE04B78206813B1012B11D018E0B0F8C7
:101F6000502010440A7800EB0210B0F80C24C2F3A1
:101F70000902A0F80C24B0F80C2442F4004205E059
:101F8000B0F8503018440B7800EB0310A0F80C2484
:101F9000097802E0C1F818A0E9B22046FEF7A9FBD3
:101FA00003E032462046FEF77EFC2068B0F844107D
:101FB00009043FF539AE0020BDE8F88F70470000F6
:101FC00001B582B064200090012301AA02A9034850
:101FD000FFF776FB9DF804000EBD000068010020AD
:101FE00070B50C4D0446002210212846FEF7BEFABB
:101FF0007E2000EA440040F08000FFF7E1FF00206F
:10200000FFF7DEFF0446012210212846FEF7AEFA54
:10201000204670BD0008014038B50B4600920446CA
:102020000022802100F008F8002804D0606D40F004
:1020300020006065032038BD2DE9F8431E46914617
:1020400088460446089DFEF797FA401B351AFEF7AE
:1020500093FA074625480068C0F3CB30684338E060
:10206000701C37D0FEF788FAC01BA84203D215B106
:10207000009860B32CE02068416821F0E0014160E5
:102080006068B0F5827F0BD1A068B0F5004F02D038
:10209000B0F5806F04D12068016821F04001016033
:1020A000A06AB0F5005F09D12068016821F40051F1
:1020B00001602068016841F400510160012084F84A
:1020C0005100002084F850000320BDE8F88300256B
:1020D000401E00902068816838EA010004D0002189
:1020E0004945BDD10020F0E70121F9E76400002057
:1020F000704770B50C460546FFF772FF40EA0401D1
:102100002846BDE8704001F0D3BAFEF73BBA30B5BF
:1021100093B028216846FEF7A9F814210AA8FEF713
:10212000A5F8002401200F94109411940104129436
:102130008DE8130004900005CDE9081002250795ED
:102140006846FFF79BF808B172B6FEE70F20CDE9AD
:102150000A054FF48060CDE90C4001210AA80E94D5
:10216000FEF7D0FF08B172B6FEE710200F90800492
:1021700012900FA8FEF750FF002801D072B6FEE7BC
:1021800013B030BD704710B5D0F8B42252689047F4
:10219000002010BD134610B50A46002100F020FBB8
:1021A000002010BD134610B50A46002100F0B3FB15
:1021B000002010BD10B50446802100F091FB2046A0
:1021C000BDE81040002100F08BBB10B505210023B5
:1021D000C0F894121A46194600F002FB002010BD08
:1021E00010B50223C261C0F89432026213460A4657
:1021F000002100F090FB002010BD10B50421002349
:10220000C0F894121A46194600F085FB002010BD54
:1022100010B50A46024903A000F0DCF8004810BDE2
:102220009404002048494420436F6E6669670000AB
:1022300012200880004870472800002010B50A4688
:10224000024903A000F0C6F8004810BD9404002025
:1022500048494420496E74657266616365000000F8
:1022600004200880004870472400002010B50A466A
:10227000024903A000F0AEF8004810BD940400200D
:1022800053544D6963726F656C656374726F6E69E8
:102290006373000010B50A46024903A000F09AF8E3
:1022A000004810BD94040020524649442052656104
:1022B0006465720010B51A2008800A480168001D84
:1022C0000468001D0068081809D008220649FFF7B5
:1022D00003FB0549042210312046FFF7FDFA0248AE
:1022E000801E10BDE8F7FF1F3E000020F8B5044631
:1022F0000020ADF8000048880D46010A082948D2A0
:10230000DFE801F04704091747473C45D4F8B0120D
:10231000207C0A6819E0207C02260028D4F8B40248
:1023200005D0C16A68468847014646703EE0816A2A
:10233000F8E7C0B206282CD2DFE800F0030A101438
:10234000181CD4F8B002426805E0694690471CE0CA
:10235000D4F8B0028268E2B1207CF6E7D4F8B0028B
:10236000C268F8E7D4F8B0020269F4E7D4F8B00222
:102370004269F0E7D4F8B0028269ECE7207C40B90A
:10238000D4F8B402416B6846884701460EE0207CD1
:1023900020B129462046FFF70DFFF8BDD4F8B4025E
:1023A000016B68468847014607204870BDF8000069
:1023B00048B1EA8852B1824200D90246ADF8002005
:1023C0002046FFF70DFFE8880028E6D12046FFF7FA
:1023D00014FFF8BD70B5002300281ED00446002568
:1023E00002E06D1CEDB2641C2678002EF9D10224A7
:1023F00004EB450414801278CA545B1C0322CA54AF
:1024000000245B1C06E0CA545B1CDAB28C54521CDC
:10241000D3B2401C0278002AF5D170BD01004FF004
:10242000000004D0012901D0022901D00220704708
:1024300001207047D0F8B8020021017308467047A8
:1024400070B50446812100F0CDF80025E562D4F88E
:10245000B80218B100F02FFCC4F8B852002070BDCB
:102460000A210180004870471C01002022210180C0
:1024700000487047A40000202221018000487047D6
:10248000C80000202221018000487047EC00002095
:1024900010B5044604230322812100F095F90120A0
:1024A000E062102000F008FCC4F8B80218B1002166
:1024B0000173084610BD022010BD10B5134690F8F8
:1024C0009C42D0F8B822032C07D1147B2CB90124EC
:1024D00014730A46812100F01EFA002010BD00008E
:1024E00038B503460022D0F8B802ADF800201446F3
:1024F0000A7812F0600216D0202A4AD14A78022ABD
:102500000ED0032A06D00A2A06D00B2A41D1897898
:10251000016042E001222BE04988090A41603CE069
:102520000122011D25E04A7832B1062A0BD00A2A81
:1025300023D00B2A2DD128E093F89C02032828D120
:102540000222694615E048882222B2EB102F05D1FD
:10255000CA883F2A00D93F22124809E02122B2EB63
:10256000102F16D10F48CA881838092A00D9092215
:1025700001461846FFF734FE0FE093F89C22032A29
:1025800007D1012200F10801F3E793F89C22032A06
:1025900005D01846FFF70EFE0224204638BD897884
:1025A0008160FAE72801002010B580B1D0F8B4327C
:1025B00013B10023C0F8B43209B1C0F8B012012140
:1025C00080F89C12027000F0BBF8002010BD0220C1
:1025D00010BD10B5D0F8C002FEF7C4F8BDE8104039
:1025E000FFF71CBF10B5D0F8C002FEF795F8BDE8A4
:1025F0001040FFF713BF2DE9F0411746044651B1D3
:10260000D4F8B40242691AB194F89C02032851D05C
:102610000220BDE8F081D4F89432002504F11400C2
:10262000022B03D0042B3AD0C3B33CE0D0E90363C0
:102630009E4207D9F11AC1608AB239462046FFF797
:10264000B1FD12E08068B0FBF3F103FB110199B911
:10265000984211D3D4F8981288420DD20022114624
:102660002046FFF79FFDC4F8985200231A461946EA
:10267000204600F0B5F816E0D4F8B402C16829B1DC
:1026800094F89C02032801D12046884780212046E7
:1026900000F026F92046FFF798FD04E0FFE78021CF
:1026A000204600F01DF994F8A002012804D184F816
:1026B000A05201E0204690470020AAE770B51546D9
:1026C000044649B1D4F8B40282691AB194F89C0264
:1026D000032830D0022070BDD4F8941204F5AA70FB
:1026E000032902D005291ED027E0D0E903218A4220
:1026F0000BD9531AC3600846834200D303469AB2EB
:1027000029462046FFF746FD17E0D4F8B4020169D8
:1027100029B194F89C02032801D12046884720461D
:10272000FFF76BFD09E000200146C4F89402204643
:1027300000F0D6F801E020469047002070BD000070
:1027400010B517490446C1F8EC02C0F8C01215488C
:102750000860082048600220886000208861C86105
:1027600008620846FEF76AFB08B1FDF7FAFD002291
:10277000D4F8C0021823114604F53074FDF79AFF0F
:102780005823002280212068FDF794FF4FF48073C6
:10279000002281212068FDF78DFF002010BD000080
:1027A000A8060020005C00400A0601F07F01D0F876
:1027B000C00201EB810100EBC10002D590F82A00B4
:1027C000704790F86A01704710B51C461346D0F860
:1027D000C0022246FEF703FABDE81040FFF71EBE16
:1027E00010B5D0F8C002FEF727FABDE81040FFF799
:1027F00015BE70B50022044640231146FFF7E4FFE2
:1028000040260125C4F86461334600228021204619
:10281000C4F85851FFF7D8FF6662A56184F89C524E
:102820000020C4F894026060C4F8A402D4F8B8028E
:1028300028B1D4F8B4020021426820469047002015
:1028400070BD90F89C12042903D190F89D1280F875
:102850009C120020704710B590F89C12032904D1F7
:10286000D0F8B412C96901B18847002010BD0174C5
:102870000020704710B5D0F8C002FEF786FBBDE817
:102880001040FFF7CBBD70B5044600F52A70054631
:1028900000F04AF80120C4F89402B4F8AE02C4F87B
:1028A000980294F8A80210F01F010AD001290DD057
:1028B000022910D000F08001204600F011F800201D
:1028C00070BD2946204600F09EF8F8E729462046CC
:1028D00000F0CAF9F3E72946204600F01DF9EEE7BB
:1028E00010B5D0F8C002FEF7BEF9BDE81040FFF702
:1028F00095BD10B5D0F8C002FEF762FBBDE81040F0
:10290000FFF78CBD90F89C1280F89D12042180F88E
:102910009C120020704710B5D0F8C002FEF7DCF919
:10292000BDE81040FFF77ABD0A7802704A7842701D
:102930008A78CB7802EB032242800A794B7902EB4A
:10294000032282808A79C97902EB0121C180704714
:102950000246002011B1C2F8B4127047022070473D
:1029600010B5D0F8B42202241AB11268904700B909
:102970000024204610BD000070B50E461E4D89781B
:1029800004462970012931D894F89C0202280BD002
:1029900003280FD031462046FFF70CFC297820464B
:1029A000BDE87040FFF7EFBBD9B10320616084F848
:1029B0009C0209E071B16068884212D0C1B2204621
:1029C000FFF7E1FB297861602046FFF7C9FF022885
:1029D0000CD006E0022084F89C0220466160FFF7DC
:1029E000D2FB2046BDE87040FFF707BC31462046C9
:1029F000BDE87040FFF7DEBB6800002010B5FFF7B0
:102A000078FF002010BD2DE9F0410A78002612F071
:102A1000600208D0202A01D0402A70D1D0F8B42218
:102A2000926890476DE04B78002201250A2B66D210
:102A3000DFE803F0405D6557650805652C29FFF761
:102A400055FC5EE004468888D8B9C888C8B948886B
:102A5000802816D200F07F0794F89C02032810D03B
:102A600084F89E7239462046FFF704FF2046FFF7A0
:102A7000C4FB1FB1022084F89C0242E084F89C52FF
:102A80003FE020463BE0FFF777FF3AE0CB88012BA1
:102A900035D190F89C32012B04D0022B02D0032BAD
:102AA0002DD104E08260012200F1080116E001222C
:102AB000011D13E090F89C22012A03D0022A01D0C4
:102AC000032A1CD1CA88022A19D1C560D0F8A412E1
:102AD00009B10321C160022200F10C01FFF780FB64
:102AE0000FE0498801290CD1C0F8A45211E090F8F8
:102AF0009C32012B08D0022B06D0032B04D0FFF709
:102B000059FB3046BDE8F08149880129F9D1C0F868
:102B1000A422FFF772FBF4E72DE9F0410A460446D0
:102B200010780027097910F060030AD0202B01D01B
:102B3000402B50D1D4F8B402114683682046984700
:102B40008FE0C0F34110012806D05078D0B301289F
:102B50002AD003283FD107E0D4F8B4021146836895
:102B60002046BDE8F041184794F89C02022802D0A4
:102B7000032872D10AE071B380296ED02046FFF796
:102B8000AFFE80212046FFF7ABFE6AE0508838B9DF
:102B900031B1802904D0D08810B92046FFF7A0FEBB
:102BA0002046FFF72AFB5CE094F89C020228E2D062
:102BB000032852D1508898BB4806F1D02046FFF731
:102BC00008FDEDE7FFE794F89C020026022803D0F9
:102BD000032842D112E040E009B180293DD1080626
:102BE00001F07F0000EB800004EB800101D514317F
:102BF00001E001F5AA7102220E602AE0080601F048
:102C00000F0000EB800004EB80000AD5806920B340
:102C100001F07F0000EB800004EB800514350BE031
:102C20001FE0D0F85801C0B101F07F0000EB800038
:102C300004EB800505F5AA7541B1802906D0204630
:102C4000FFF7B2FD10B10120286000E02E600222E3
:102C500029462046FFF7C4FA03E011462046FFF755
:102C6000A9FA3846BDE8F08170B5054608780C46EB
:102C700010F0600003D0202801D0402816D195F82C
:102C80009C02012803D0022801D003280ED120790C
:102C900001280BD8D5F8B402826828469047E1880D
:102CA000014306D12846FFF7A8FA02E02846FFF7BD
:102CB00081FA002070BD70470048704794060020DC
:102CC0002DE9F0470C78002630F8243048F68F12B2
:102CD0001340CA78002A78D0012A7CD0022A02D078
:102CE000032A75D0012648F28002134320F82430CD
:102CF0000D7830F8253048F68F7423402B4313436A
:102D000020F825300D7B48F2C00948F6BF734CF21D
:102D1000800A4BF68F77EDB3CD7891F800C0022D85
:102D200030F82C507DD048F68F6805EA0805154329
:102D300020F82C50B0F8505091F800C0054405EB35
:102D40000C15B1F808C02CF0010CA5F800C4B0F8BF
:102D5000505091F800C0054405EB0C15B1F80AC0BD
:102D60002CF0010CA5F808C44D78002D7ED00D780C
:102D700030F825C05FEA4C4C07D530F825C00CEA86
:102D8000040C4CEA0A0C20F825C091F800C030F879
:102D90002C5000E022E06D0606D530F82C5025407E
:102DA00045EA090520F82C50CC780D78012C30F834
:102DB000254004EA03047CD084F02003134320F868
:102DC0002530C1E001E006E002E043F400738AE749
:102DD00043F4C06387E743F4806384E74D784DB3E1
:102DE000B0F850500F78054405EB0715CF8827F051
:102DF0000107A5F800740F7830F827506D0606D546
:102E000030F82750254045EA090520F82750CC78AE
:102E1000012C07D00C7830F82410194081F02001E3
:102E200004E064E00C7830F824101940114320F8D5
:102E3000241090E0B0F850300D78034403EB0513F4
:102E4000CD8825F00105A3F80854B0F850300D786E
:102E5000034403EB0513B3F80C54C5F30905A3F8B9
:102E60000C540D6903F20C433E2D00E045E00BD9F4
:102E70004FEA551CED0601D1ACF1010C1D884FF451
:102E8000004848EA8C2C0BE035B34FEA550CED07AF
:102E900001D00CF1010C1D884FF6FF7808EA8C2C4C
:102EA00045EA0C051D800D7830F825305B0408D507
:102EB00000E046E030F82530234043EA0A0320F8DA
:102EC0002530097861B130F821303B4083F400535C
:102ED000134320F821303EE01D8845F40045E1E72A
:102EE0000188394081F440511143018033E025408D
:102EF00048F2801845EA08051AE791F800C030F852
:102F00002C506D0406D530F82C50254045EA0A05B2
:102F100020F82C5091F800C030F82C506D0606D5E2
:102F200030F82C50254045EA090520F82C500D7842
:102F300030F825403C4084F44054144320F82540A8
:102F400070E7144320F825400B7830F823103940FF
:102F5000114320F823103046BDE8F0870020704769
:102F60002DE9F04391F80C804F780A7848F6BF7C41
:102F70004BF68F7948F2800348F2C0054CF2800688
:102F800048F68F74B8F1000F28D0002F30F8227067
:102F90004FEA474748D0002F05DA30F82270274023
:102FA000374320F822700A7830F822707F0605D562
:102FB00030F8227027402F4320F822700D7830F827
:102FC00025202240324320F825200C7830F8242098
:102FD00002EA0C021A4320F824201AE07FB130F8EC
:102FE0002260760605D530F8226026402E4320F870
:102FF00022600A7830F8221001EA0C010EE030F865
:1030000022506D0405D530F822502540354320F874
:1030100022500A7830F8221001EA0901194320F8F9
:1030200022100020BDE8F083002F05DA30F822706E
:103030002740374320F822700A7830F8226076065D
:1030400005D530F8226026402E4320F822600E7805
:1030500030F8262022402A4320F826200C7830F829
:10306000242002EA09021A4320F82420C1E70020A4
:10307000704700207047012120F8401F0021018087
:10308000818001820846704730F8401F21F43F419B
:103090000180002070470020704730B50A7BB2BB2A
:1030A0004A7848F68F7548F28004C2B10B7830F840
:1030B0002320520607D530F823202A4048F2C005C5
:1030C0002A4320F82320CA78012A20D00A7830F831
:1030D000221048F6BF73194081F0200114E00A78ED
:1030E00030F822305B0407D530F822302B404CF208
:1030F00080052B4320F822300A7830F822104BF656
:103100008F73194081F44051214320F82210002090
:1031100030BD10B54A780978002A48F2800330F8AB
:10312000212005D048F6BF74224082F0100204E04E
:103130004BF68F74224082F480521A4320F82120EB
:10314000002010BD2DE9F0470D464B78097B044661
:103150004FF0000948F68F7248F2800A4FF400479A
:103160004FF6FF78012B09D000296FD0E8780228AC
:103170006DD001286CD00120BDE8F087AE692869C8
:10318000864200D9064691B1E97802291ED0286A04
:10319000801B2862287834F820104906B4F85010B3
:1031A000214401EB001073D5A0F80C6416E1B3B212
:1031B000EA882046696900F067FAB4F85000297877
:1031C000204400EB0110A0F804640DE1296A81425B
:1031D00077D9297834F82100104048F28012104342
:1031E00024F82100286A801B2862287834F82010EF
:1031F0004906697871D511B101292AD030E0B4F8B7
:103200005010214401EB0010B0F80C14C1F3090177
:10321000A0F80C1400F20C403E2E07D97109F206FA
:1032200000D1491E028847EA812107E04EB17108AA
:10323000F20700D0491C028808EA81210A43028073
:103240000EE0018841F40041018009E0F1E020E155
:1032500095E1B4F85020111901EB0010A0F80C64AE
:103260006A89B3B22046696900F00EFA6869304491
:1032700068612969286A884202D9801B286202E0B5
:103280000646C5F82090687818B101282BD032E0A6
:103290002FE0B4F850002978204400EB0110B0F87A
:1032A0000414C1F30901A0F8041400F204403E2EF6
:1032B00008D97109F20600D1491E028847EA812126
:1032C00008E0A1E056B17108F20700D0491C02885D
:1032D00008EA81210A4302800DE00EE0018841F4F2
:1032E0000041018007E0B4F850002978204400EB49
:1032F0000110A0F804642A8971E011B1012927D0D6
:103300002DE0B4F85010214401EB0010B0F8041483
:10331000C1F30901A0F8041400F204403E2E07D9BD
:103320007109F20600D1491E028847EA812107E0AF
:103330004EB17108F20700D0491C028808EA8121C9
:103340000A4302800BE0018841F40041018006E05D
:10335000B4F85010214401EB0010A0F804642A894D
:10336000B3B22046696900F08FF96869304468613A
:103370002969286A884202D9801B286202E0064631
:10338000C5F82090687810B1012836D026E0B4F84E
:1033900050002978204400EB0110B0F80C14C1F360
:1033A0000901A0F80C1400F20C403E2E07D9710957
:1033B000F20600D1491E028847EA812107E04EB19A
:1033C0007108F20700D0491C028808EA81210A43EB
:1033D000028003E0018841F4004101806A89B3B2B0
:1033E0002046696900F050F9297834F8210048F640
:1033F000BF72104080F030000FE1B4F8501008198F
:10340000297800EB0110CFE62A7834F8220048F63C
:103410008F63184040EA0A0024F82200B4F85000F4
:103420002A78204400EB02108BB2A0F804342A89D9
:10343000D6E7A9692869814202D9091AA96102E07F
:103440000846C5F81890B4F850102A78214401EBCA
:103450000211B1F80C24C2F30902A1F80C2401F204
:103460000C413E287DD94209C00600D1521E088871
:1034700047EA82220AE0088840F4004007E0420858
:10348000C00700D0521C088808EA82221043088036
:10349000BBE033BBB4F850002978204400EB0110A6
:1034A000B0F80414C1F30901A0F80414296900F26A
:1034B00004403E2907D94B09C90600D15B1E01888B
:1034C00047EA832307E041B14B08C90700D05B1CE2
:1034D000018808EA8323194302E0018841F400418E
:1034E0000180687810B1012828D030E0B4F850008D
:1034F0002978204400EB0110B0F80C14C1F3090145
:10350000A0F80C14296900F20C403E2907D94B0998
:10351000C90600D15B1E018847EA832307E041B159
:103520004B08C90700D05B1C018808EA83231943B4
:1035300002E0018841F40041018008E0B4F8501035
:103540000819297800EB0110298AA0F80C14E86901
:10355000C0B3297834F82100430401D5430605D4CB
:1035600000E046E044F2400318424ED134F8210016
:10357000104048F2C002104324F8210045E0A96938
:103580002869814202D9091AA96102E00846C5F8F2
:10359000189013BBB4F850102A78214401EB0211A3
:1035A000B1F80424C2F30902A1F8042401F2044191
:1035B0003E2808D94209C30600D1521E0B8847EAAB
:1035C000822208E021E078B14208C30700D0521CF3
:1035D0000B8808EA822213430B80697800293FF4A4
:1035E0002EAF012909D010E00A8842F400420A8077
:1035F000F3E700287FF443AF3DE7B4F850201119FA
:103600002A7801EB0211A1F80C04297834F8210082
:103610004BF68F72104080F4405040EA0A0024F8C4
:1036200021000020A8E50021A0F844104FF43F41FC
:10363000A0F84010002070470148FDF765BB00006E
:10364000A8060020B0F844007047000010B500EB59
:1036500042005C0800F5806009D000BF30F8042B00
:1036600001F8012B120A01F8012B641EF6D1DA07CA
:1036700001D00088087010BD0020704711B980216A
:10368000A0F84C100020704710B55B1C00EB420006
:103690005B0800F5806009D011F8012B11F8014B8F
:1036A00042EA042220F8042B5B1EF5D110BDFEE790
:1036B00070B50B4D0E460446002210212846FCF73B
:1036C00055FF7E2000EA4400FEF77AFC3046FEF704
:1036D00077FC2846BDE8704001221021FCF746BF68
:1036E000000801400907090E002804DB00F1E02072
:1036F00080F80014704700F00F0000F1E02080F81F
:10370000141D7047FCF746FFFEF701FDFEF7EEF9CA
:10371000FEF73AFAFEF75AFAFEF71CF92C4D2D493E
:103720002620FEF745F90028F9D12A48FEF7F0F8DF
:103730000028F4D10122284E540221463046FCF7DD
:1037400015FF6420FCF710FE002221463046FCF7EE
:103750000DFF224E2401002221463046FCF706FFD1
:103760004FF4FA70FCF700FE012221463046FCF7C8
:10377000FDFE4FF47A70FCF7F7FD0124DFF854806A
:103780000627C02618F8042002204100091FC0F1B6
:10379000020326FA01F107EB43031140D9402954F3
:1037A000401C0528F1DD02202722295C69B11D316A
:1037B0002954401C0528F8DD062205490848FEF773
:1037C0007CFE641C042CDDDDA9E72A54F1E700002F
:1037D00000000020C001002000080140001001404E
:1037E000D0010020010202030405060708090A0BA4
:1037F0000C0D0E0F10100000000000000000010270
:10380000030406070809000028380008000000200B
:103810006801000028010008F03800086801002055
:10382000900E000084010008811331221B086104FE
:103830001A6D041A95041AB5041A11041A3D0417D6
:103840000403090412013202164083042B57260296
:1038500001020301031A1A03191F1182105324F4E1
:103860001391241B0841041AE104819A350C811A32
:1038700079141A6D041A85041A61041409022213BA
:1038800001011DE0320904591A030B150921110128
:103890001401223F160705810304220AE924EA02E3
:1038A000240A21072429486912314B0A06F429CC3D
:1038B000100E05010906A101050719E029E71528E1
:1038C0001A250175019508810295017508810395F6
:1038D00005750105081901290591121808039103BE
:1038E00095067508261A6530111429658112C000E5
:04000005080000ED02
:00000001FF
