:020000040800F2
:10000000D80A002089010008611000088D0D000841
:100010005F1000088F020008BD10000800000000FB
:100020000000000000000000000000006510000853
:10003000910200080000000063100008671000082B
:10004000A3010008A3010008A3010008A301000800
:10005000A3010008A3010008A3010008A3010008F0
:10006000A3010008A3010008A3010008A3010008E0
:10007000A3010008A3010008A3010008A3010008D0
:10008000A3010008A3010008A3010008A3010008C0
:10009000A30100080000000000000000A301000808
:1000A0000000000000000000000000000000000050
:1000B000A3010008A3010008A3010008A301000890
:1000C000A3010008A3010008A3010008A301000880
:1000D000A3010008A3010008A3010008A301000870
:1000E000A3010008A3010008A301000800F002F822
:1000F00000F03AF80AA090E8000C82448344AAF188
:100100000107DA4501D100F02FF8AFF2090EBAE885
:100110000F0013F0010F18BFFB1A43F0010318473B
:100120003821000058210000103A24BF78C878C157
:10013000FAD8520724BF30C830C144BF04680C60ED
:10014000704700000023002400250026103A28BF35
:1001500078C1FBD8520728BF30C148BF0B60704739
:100160001FB51FBD10B510BD00F058F81146FFF7C0
:10017000F7FF00F0B5FF00F076F803B4FFF7F2FFE9
:1001800003BC00F07DF8000009488047094800479B
:10019000FEE7FEE7FEE7FEE7FEE7FEE7FEE7FEE737
:1001A000FEE7FEE704480549054A064B7047000094
:1001B000BB100008ED000008D8040020D80A002079
:1001C000D8060020D80600204FF0000200B51346E4
:1001D00094469646203922BFA0E80C50A0E80C5067
:1001E000B1F12001BFF4F7AF090728BFA0E80C5018
:1001F00048BF0CC05DF804EB890028BF40F8042B11
:1002000008BF704748BF20F8022B11F0804F18BF7D
:1002100000F8012B7047704770477047754600F033
:100220002BF8AE4605006946534620F00700854688
:1002300018B020B5FFF7B6FFBDE820404FF000062C
:100240004FF000074FF000084FF0000B21F00701BE
:10025000AC46ACE8C009ACE8C009ACE8C009ACE801
:10026000C0098D46704710B50446AFF300802046A4
:10027000BDE81040FFF781BF0048704774040020BC
:1002800001491820ABBEFEE7260002007047FEE7DA
:100290007047000070B5044600F0EEF80546601C9B
:1002A00002D004480078044400F0E6F8401BA04265
:1002B000FAD370BD100000202DE9F84FDFF89C91B3
:1002C0000024A9F1040B23460F2709F1040AABF11E
:1002D000040EBBE00125A5402A40AA4276D1DFF8F2
:1002E00080C14E68A6EB0C0866452BD00DDC032EB2
:1002F00034D005DC36B3012E19D0022E2FD11BE0ED
:10030000112E16D0122E2AD119E0B8F5881F19D057
:1003100006DCB8F5803F15D0B8F5801F1FD111E07D
:10032000B8F5001F0ED0B8F5041F18D10AE0CB684D
:1003300015E0CB681B1D12E0CB6808330FE0CB68DB
:100340000C330CE08B682BB1012B4FF0080303D06A
:10035000456104E0042302E0056100E00023FF2A78
:1003600001D8064601E000F104064FEA840501D9F0
:10037000A5F12005D6F8008007FA05FC28EA0C084C
:1003800003FA05F548EA0508C6F800804D68ED0057
:100390005BD5344DAE6946F00106AE61AD6924F01F
:1003A000030605F0010500952F4D06EB050CDCF862
:1003B0000850A607360F07FA06F825EA0805DFF801
:1003C000AC80404503D14FF0000810E03DE0DFF87D
:1003D000A080404502D14FF0010808E0DFF894808A
:1003E000404502D14FF0020801E04FF0030808FA3F
:1003F00006F848EA0508CCF808804D68D9F800608E
:10040000ED024D4601D5164300E096432E604D683F
:10041000DAF80060AD02554601D5164300E0964378
:100420002E604D68DBF80060AD035D4601D51643D4
:1004300000E096432E604D68DEF80060ED037546DF
:1004400001D5164300E096432E60641C0A6832FA18
:1004500004F57FF43FAFBDE8F88F000008040140C9
:10046000000011100010024000000140000801408F
:10047000000C0140001001400148806870470000F6
:100480001000002070B5040025D094F83D00002530
:1004900020B984F83C50204600F050F9242084F81C
:1004A0003D002068016821F00101016020680168B9
:1004B00041F4004101602068016821F400410160BD
:1004C00000F08AFA4D4A6168914201D84C4900E037
:1004D0004C49884201D2012070BD4B492368B0FBD2
:1004E000F1F15E6826F03F060E435E60636893425A
:1004F00006D94FF4967359434FF47A73B1FBF3F175
:100500002368491C1E6A26F03F0631431962616860
:10051000914210D84900401EB0FBF1F2521CC2F3C8
:100520000B02042A01D2042022E0B0FBF1F0401CAF
:10053000C0F30B001CE0A268F2B301EBC10303EBB4
:100540000116431EB3FBF6F35B1C43F480431B050B
:1005500049D092B301EBC10202EB0111401EB0FB86
:10056000F1F0401CC0F30B0040F4804040F4004028
:100570002168CA694CF6FF739A431043C861D4E9F5
:10058000071001432068026822F0C0021143016095
:10059000D4E9030101432068826848F2FF339A439B
:1005A00011438160D4E9050108432168CA6822F03B
:1005B000FF021043C86001E00EE016E02068016809
:1005C00041F0010101602564202084F83D0025638D
:1005D00084F83E50002070BD01EB4106431EB3FB82
:1005E000F6F35B1CB3E70120C2E701EB4101401EBB
:1005F000B0FBF1F0401CC0F30B00B7E7A086010090
:1006000080841E0000093D0040420F002DE9FF4F8D
:1006100083B09A46DDE9119793460446DDF84080A1
:10062000FFF72AFF054694F83D0020287FD11923C3
:10063000012240492046009500F040FC002876D178
:1006400094F83C00012872D0012084F83C00206816
:100650000168C90703D1016841F001010160206808
:10066000016821F400610160212084F83D004020F0
:1006700084F83E0000262664C4F82480A4F82A905A
:10068000608D20852C48E062CDE9007553465A46BE
:100690002046049900F092FB70B930E02A463946B2
:1006A000204600F0B1FC58B1206C042804D1206829
:1006B000016841F400710160012007B0BDE8F08FCE
:1006C000606A216800780861606A401C6062218D60
:1006D000491E89B22185628D521E62852268536946
:1006E000DB435B070BD469B100781061606A401C82
:1006F0006062208D401E2085608D401E6085208DAB
:100700000028CBD12A463946204600F0ABFB002812
:10071000CAD154F83D0B016841F4007101602020FA
:1007200004F81E09E67766770020C6E7FFE7022097
:10073000C3E70000020010000000FFFF10B586B004
:100740000021009101910291039100680F498842B4
:100750001AD10F4CA06940F00800A061A069694659
:1007600000F008000490C0200090122001900320A7
:1007700003900848FFF7A0FDE06940F40010E06135
:10078000E06900F40010049006B010BD0054004071
:1007900000100240000C01400248816802781144B8
:1007A0008160704710000020074810B5016841F0D3
:1007B00010010160032000F067F80F2000F006F838
:1007C00000F024F8002010BD0020024070B50D4D4F
:1007D00004464FF47A712878B1FBF0F00A490968B1
:1007E000B1FBF0F000F0BEFA48B9102C07D200229D
:1007F0002146501E00F028F800206C6070BD0120DA
:1008000070BD0000100000201C0000200C4808B53E
:10081000816941F001018161816901F0010100916B
:10082000C16941F08051C161C06900F08050009001
:100830000448416821F0E06141F00071416008BD69
:100840000010024000000140F0B40E4B1B680C4643
:10085000C3F30223C3F10705042D00D90425191D94
:10086000072901D2002300E0DB1E012606FA05F16C
:10087000491E214099409E40761E16403143F0BCEF
:1008800000F01DBC0CED00E0064900F0070208680E
:100890004FF6FF03184040EA0220034A1043086065
:1008A000704700000CED00E00000FA052DE9F0476C
:1008B0000F46050061D0434E306800F00700B84293
:1008C00009D2306820F0070038433060306800F00B
:1008D0000700B84251D128683B4C810712D5400728
:1008E00003D5606840F4E06060602878000703D5B5
:1008F000606840F4605060606068A96820F0F000B3
:10090000084360602878C00728D06868012810D0A4
:100910002168022810D0890700292EDA616821F0A9
:10092000030101436160FFF7A7FD804641F288396A
:100930000DE021688903EFE78901EDE7FFF79CFDF2
:10094000A0EB0801494502D90320BDE8F0876068A3
:10095000696800F00C00B0EB810FEFD1306800F057
:100960000700B8420BD9306820F0070038433060E8
:10097000306800F00700B84201D00120E5E7287890
:10098000400705D56068E96820F4E06008436060CE
:100990002878000706D56068296920F4605040EA8D
:1009A000C100606000F028F86168084AC1F30311D3
:1009B000515CC8400649086006480068FFF706FF1A
:1009C0000020C2E700200240001002403E22000842
:1009D0001C000020140000200448054900684968F4
:1009E000044AC1F30221515CC84070471C0000203A
:1009F000001002404E2200080E4A51680E4801F0D5
:100A00000C03042B11D0082B0FD10C48C1F38343E6
:100A1000C903C05C0AD55168084AC1F34041921E1F
:100A2000515C054A5043B0FBF1F07047044948431C
:100A3000704700000010024000127A002E220008C9
:100A400000093D002DE9F84F040070D02078C04D1A
:100A5000C00749D06868C0F38100012807D06868E2
:100A6000C0F38100022809D16868C00306D5286850
:100A7000800339D560680028E7D035E06068B0F5BC
:100A8000803F0BD010B1B0F5A02F11D0286820F412
:100A900080302860286820F4802002E0286840F434
:100AA00080302860606890B1FFF7E6FC06460AE0F7
:100AB000286840F480202860F0E700BFFFF7DCFCE6
:100AC000801B642873D828688003F7D50CE0FFF7F3
:100AD000D3FC064605E000BFFFF7CEFC801B642870
:100AE000F0D828688003F7D420789A4E80074FF01A
:100AF00001094FF0000839D5686810F00C0F07D0D5
:100B00006868C0F38100022809D16868C00306D470
:100B10002868800714D52069012808D110E02069D1
:100B2000B0B1C6F80090FFF7A7FC074605E00AE160
:100B3000FFF7A2FCC01B0228C4D828688007F7D59D
:100B40002868616920F0F80040EAC10028600DE0E3
:100B5000C6F80080FFF790FC074604E0FFF78CFC26
:100B6000C01B022823D828688007F7D42078000704
:100B70002CD57948A169D9B1C0F80090FFF77CFC69
:100B8000074604E0FFF778FCC01B02280FD8686A0C
:100B90008007F7D571484FF4FA510068B0FBF1F0C7
:100BA000009000BF0098411E0091FAD20EE080E054
:100BB000C0F80080FFF760FC074604E0FFF75CFC2C
:100BC000C01B022875D8686A8007F7D420784007D0
:100BD00060D5E8690027C00008D4E86940F080507B
:100BE000E861E869012700F0805000905C480168E6
:100BF000C90513D40168834641F480710160FFF791
:100C00003BFC824606E000BFFFF736FCA0EB0A0083
:100C100064284ED8DBF80000C005F5D5E06801284F
:100C20000AD008B1052813D0286A20F001002862F4
:100C3000286A20F0040002E0286A40F001002862DF
:100C4000E06841F2883B98B1FFF716FC82460BE062
:100C5000286A40F004002862EEE700BFFFF70CFCB2
:100C6000A0EB0A0159455AD8286A8007F6D50CE04E
:100C7000FFF702FC824605E0FFF7FEFBA0EB0A014E
:100C800059454CD8286A8007F6D41FB1E86920F08E
:100C90008050E861E06988B36968C1F38101022985
:100CA00044D00228C6F8608004D0FFF7E5FB044674
:100CB00038E034E0FFF7E0FB074604E0FFF7DCFB39
:100CC000C01B02282BD828688001F7D4206AB0F511
:100CD000803F05D16868A16820F40030084368604F
:100CE000D4E908010843696821F474110843686075
:100CF000C6F86090FFF7C0FB044606E025E000BFA1
:100D0000FFF7BAFB001B022809D828688001F7D535
:100D10001BE000BFFFF7B0FB001B022802D9032035
:100D2000BDE8F88F28688001F4D40EE00128F7D0E0
:100D30006868226A00F48031914204D1616A00F44B
:100D40007010884201D00120EAE70020E8E70000A7
:100D50000010024000004242800442421C00002079
:100D60000070004010B5401EB0F1807F01D301201B
:100D700010BD4FF0E02460610F21601700F09FF973
:100D80000020A06107202061002010BDFEE701685F
:100D90004A69D24352050FD46FF480624A61002140
:100DA00040F8301F202242738173026942F004022E
:100DB0000261017301207047002070472DE9F8435C
:100DC000044600680D46DDE9089701689846164616
:100DD00041F4807101604B4600224FF00111204622
:100DE000009700F06BF848B120680068C00502D594
:100DF0004FF4007020640320BDE8F883216805F0FB
:100E0000FE0008613B464A461549204600F09EF820
:100E100088B920684169806900903A464946204671
:100E200000F0F2F848B1206C042804D12068016871
:100E300041F4007101600120DEE7F5B2B8F1010F65
:100E400009D02168300A08613A464946204600F038
:100E5000DBF80028E7D1206805610020CCE700001E
:100E60000200010070B516460D4604461EE02046FD
:100E7000FFF78DFF08B1012070BD681C16D0FFF789
:100E8000FBFA801BA84200D885B920684069C0439E
:100E900040070BD5002044F8300F20216173A07368
:100EA000216941F0200121612073E4E72068406955
:100EB000C0434007DBD4002070BD00002DE9F0479F
:100EC000984617460D460446C1F30746DDF82090C4
:100ED0002AE000BFB8F1FF3F26D0FFF7CDFAA0EB24
:100EE0000901414502D8B8F1000F1DD12068012E3B
:100EF00016D0806925EA00000004000C12D0002002
:100F0000B84211D1002044F8300F20216173A07342
:100F1000216941F02001216120730120BDE8F087A3
:100F20004069E7E70120EBE72068012E0AD08069DD
:100F300025EA00000004000C06D00020B842C9D009
:100F40000020EBE74069F3E70120F7E72DE9F047E0
:100F5000984616460D4604464FF000094FF0200A09
:100F6000C1F3074723E020684069C043400515D41A
:100F70002068016841F40071016021686FF48060AD
:100F80004861C4F8309084F83DA084F83E90216C0C
:100F900041F00401216484F83C9021E0701C06D0EB
:100FA000FFF76AFAA0EB0800B04203D816B1012F90
:100FB0001FD021E02068012F15D0806925EA0000AC
:100FC0000004000C18D000BF44F8309F84F80DA036
:100FD00084F80E90216941F02001216184F80C9081
:100FE0000120BDE8F087406925EA00000004000CFC
:100FF000EAD12068406901E02068806925EA0000A4
:101000000004000CAFD1ECE770B516460D4604465F
:101010001EE02046FFF7BBFE08B1012070BD681C32
:1010200016D0FFF729FA801BA84200D885B920689E
:101030004069C04300060BD5002044F8300F202142
:101040006173A073216941F0200121612073E4E7FD
:1010500020684069C0430006DBD4002070BDFEE775
:10106000FEE770477047FFF797BB10B590B0282197
:101070006846FFF7A9F814210AA8FFF7A5F802208F
:1010800000900120049010200024059007946846E9
:10109000FFF7D8FC08B172B6FEE70F20CDE90A04CD
:1010A0000C940D9400210AA80E94FFF7FFFB002872
:1010B00001D072B6FEE710B010BD7047FEE7090719
:1010C000090E002804DB00F1E02080F800147047CE
:1010D00000F00F0000F1E02080F8141D70470000C0
:1010E00008B5374800F0AEF808B172B6FEE74FF425
:1010F0007A742046FFF7CEF8002000F093F83048CD
:1011000000F04AF92046FFF7C5F80021084600F034
:101110003DF92C4C01232CA0D4E9001200F0C2F9B7
:101120002421002000F032F9D4E90012012328A084
:1011300000F0B8F90024002504F16406F0B20122A1
:10114000294600F04FF86D1CEDB2402DF6D3641C1B
:10115000E4B21C2CEFD31A4800F01EF9FFF724FB71
:10116000FFF783FF1C48816941F02001816181699B
:1011700001F020010091816941F0040181618169E0
:1011800001F004010091816941F0080181618069E9
:10119000124900F00800009009484FF480420160B5
:1011A0000F49416000218160C0E903124161816102
:1011B000C1610162FFF766F908B172B6FEE7FEE7AA
:1011C00020040020000000207373643133303600A7
:1011D00034696C6F000000000010024000540040B1
:1011E000801A060070B5802813D2402911D20B4B0B
:1011F000012401F007051E79AC40094BC90800EB3A
:10120000C1100EB132B101E0012A03D0195CA14333
:10121000195470BD195C2143FAE700000800002052
:101220002000002010B5064A00214FF4806328B149
:10123000FF245454491C9942F9D310BD0024F8E707
:101240002000002070B505466420FFF723F8AE218A
:10125000284600F019F904462021284600F014F928
:1012600004441021284600F00FF90444B021284618
:1012700000F00AF90444C821284600F005F90444A6
:101280000021284600F000F904441021284600F00F
:10129000FBF804444021284600F0F6F8044481217C
:1012A000284600F0F1F80444FF21284600F0ECF84D
:1012B0000444A121284600F0E7F80444A62128466A
:1012C00000F0E2F80444A821284600F0DDF80444C8
:1012D0003F21284600F0D8F80444A421284600F015
:1012E000D3F80444D321284600F0CEF8044400216A
:1012F000284600F0C9F80444D521284600F0C4F877
:101300000444F021284600F0BFF80444D9212846BF
:1013100000F0BAF804442221284600F0B5F804444D
:10132000DA21284600F0B0F804441221284600F0E3
:10133000ABF80444DB21284600F0A6F80444202141
:10134000284600F0A1F804448D21284600F09CF8BE
:1013500004441421284600F097F80444AF2128469D
:1013600000F092F8E04201D0012070BD0020FFF7AC
:1013700059FF284600F010F8034800210180418001
:1013800001214171002070BD08000020014A108039
:1013900051807047080000202DE9FE430024642599
:1013A000114F8046802600BF04F1B000C1B2404614
:1013B00000F06AF80021404600F066F8102140462F
:1013C00000F062F807EBC410CDE9000601234022CB
:1013D000782102954046FFF719F9641CE4B2082C05
:1013E000E2D3BDE8FE830000200000202DE9FF4F7E
:1013F000834624489246CEB202883244802A06D2DE
:1014000081464088C1F307273844402803D3002091
:1014100004B0BDE8F08F002528E000BFABF120004C
:1014200000FB075000243AF810801CE008FA04F092
:10143000000409D599F8021099F8000029442044C5
:10144000C9B2C0B2039A0BE00398C0B15FF00002CA
:1014500099F8021099F8000029442044C9B2C0B29A
:10146000FFF7C0FE641CA642E0D86D1CAF42D5D881
:10147000B9F8001058463144A9F80010C8E7012215
:10148000E6E700000800002003B583B00A2301222C
:1014900004A98DE80E00134600227821FFF7B6F864
:1014A00005B000BDF0B51D460E46174604460AE0DD
:1014B0002B463A463146FFF799FF2178884201D002
:1014C000C8B2F0BD641C20780028F1D1C0B2F0BDD4
:1014D000000000000000000000000000000000000C
:1014E00000000000000000000000000000000000FC
:1014F000000000000000000C000C000C000C000CB0
:10150000000C000C000C000C000C000C0000000C87
:10151000000C0000000000000000001B001B001B6E
:10152000001B001B00000000000000000000000085
:101530000000000000000000000000000000801912
:10154000801980198019C07FC07F80190033C07F47
:10155000C07F003300330033003300000000000080
:101560000000001E003F807580650074003C001E76
:1015700000078005806580658075003F001E0004BF
:10158000000400000000007000D840D8C0D880D906
:1015900000730006000C801BC036C066C046C00643
:1015A00080030000000000000000001E003F003328
:1015B00000330033001E000CC03CC06680638061B5
:1015C0008063C03E801C0000000000000000000C92
:1015D000000C000C000C000C0000000000000000DB
:1015E00000000000000000000000000000000000FB
:1015F000800000010003000600060004000C000C3F
:10160000000C000C000C000C000400060006000397
:1016100000018000002000100018000C000C0004E5
:101620000006000600060006000600060004000C86
:10163000000C0018001000200000000C002D003FDE
:10164000001E003300000000000000000000000049
:10165000000000000000000000000000000000008A
:101660000000000C000C000C000CC0FFC0FF000CC0
:10167000000C000C000C0000000000000000000046
:10168000000000000000000000000000000000005A
:1016900000000000000000000000000C000C00042E
:1016A000000400080000000000000000000000002E
:1016B000000000000000001E001E000000000000EE
:1016C000000000000000000000000000000000001A
:1016D000000000000000000000000000000000000A
:1016E0000000000C000C00000000000000000003DF
:1016F000000300030006000600060006000C000CB4
:10170000000C000C00180018001800000000000079
:101710000000001E003F0033806180618061806DA9
:10172000806D8061806180610033003F001E000099
:101730000000000000000006000E001E003600261B
:101740000006000600060006000600060006000669
:1017500000060000000000000000001E003F807333
:1017600080618061800100030006000C00180030D9
:101770000060807F807F0000000000000000001CEF
:10178000003E006300630003000E000E00038001B2
:10179000800180618073003F001E00000000000097
:1017A00000000006000E000E001E001E001600368F
:1017B00000360066807F807F00060006000600007D
:1017C000000000000000007F007F006000600060FB
:1017D000006E007F80638001800180618073003F24
:1017E000001E0000000000000000001E003F8033CB
:1017F00080610060006E007F807380618061806125
:101800008033003F001E0000000000000000807FC9
:10181000807F80010003000300060006000C000C1E
:10182000000C00080018001800180000000000005C
:101830000000001E003F8063806180610021001E67
:10184000003F8061806180618061003F001E000078
:10185000000000000000001E003F007380618061F6
:1018600080618073803F801D800180610073003F34
:10187000001E00000000000000000000000000004A
:101880000000000C000C0000000000000000000040
:101890000000000C000C0000000000000000000030
:1018A0000000000000000000000C000C0000000020
:1018B000000000000000000C000C00040004000800
:1018C000000000000000000080008003000E0038CF
:1018D00000600038000E800380000000000000005F
:1018E0000000000000000000000000000000807FF9
:1018F000807F00000000807F807F000000000000EB
:1019000000000000000000000000000000000000D7
:1019100000400070001C000780010007001C0070E0
:101920000040000000000000000000000000001F58
:10193000803FC071C060C000C00180030007000E7E
:10194000000C000C0000000C000C00000000000067
:101950000000001E003F803180718063806F806DC9
:10196000806D806F806700600032003E001C0000C8
:10197000000000000000000E000E001B001B001BFA
:10198000001B80318031803F803F8031C060C0606B
:10199000C0600000000000000000007C007E0063CA
:1019A000006300630063007E007E006380618061ED
:1019B0008063007F007E0000000000000000001E29
:1019C000003F803180610060006000600060006066
:1019D000006080618031003F001E000000000000B8
:1019E0000000007C007F0063806380618061806113
:1019F00080618061806100630063007E007C000084
:101A0000000000000000807F807F006000600060B8
:101A10000060007F007F0060006000600060807FE9
:101A2000807F0000000000000000807F807F006059
:101A3000006000600060007F007F00600060006068
:101A40000060006000600000000000000000001E58
:101A5000003F8031806100600060006080638063CF
:101A6000806180618031803F001E00000000000026
:101A70000000806180618061806180618061807F21
:101A8000807F806180618061806180618061000011
:101A9000000000000000003F003F000C000C000CA4
:101AA000000C000C000C000C000C000C000C003FA3
:101AB000003F000000000000000080018001800164
:101AC000800180018001800180018001806180614E
:101AD0008073003F001E0000000000000000C06096
:101AE0008061006300660066006C0078007C006620
:101AF0000066006380618061C0600000000000003B
:101B00000000006000600060006000600060006035
:101B100000600060006000600060807F807F0000E7
:101B2000000000000000C071C071C07BC07AC06AB4
:101B3000C06AC06EC064C060C060C060C060C06089
:101B4000C06000000000000000008071807180799A
:101B500080798079806D806D806D80658067806719
:101B60008067806380630000000000000000001EAA
:101B7000003F0033806180618061806180618061AD
:101B8000806180610033003F001E00000000000003
:101B90000000007E007F80638061806180618063DF
:101BA000007F007E00600060006000600060000058
:101BB000000000000000001E003F003380618061D3
:101BC0008061806180618061806580670033803FD3
:101BD000401E0000000000000000007E007F8063C7
:101BE000806180618063007F007E00660063006327
:101BF00080618061C0600000000000000000000EF5
:101C0000001F8031803100300038001E0007800343
:101C1000806180618031003F001E000000000000F4
:101C20000000C0FFC0FF000C000C000C000C000CFA
:101C3000000C000C000C000C000C000C000C000050
:101C4000000000000000806180618061806180612F
:101C50008061806180618061806180618073003F0C
:101C6000001E0000000000000000C060C060C060F6
:101C7000803180318031001B001B001B001B000ED7
:101C8000000E000E00040000000000000000C0C0B4
:101C9000C0C0C0C0C0C0C0C0C0CC804C804C805E42
:101CA00080528052807380618061000000000000DB
:101CB0000000C0C0806080610033003B001E000C4B
:101CC000000C001E001F003B80718061C0C000003E
:101CD000000000000000C0C080618061003300335C
:101CE000001E001E000C000C000C000C000C000C70
:101CF000000C0000000000000000803F803F8001D9
:101D0000000300030006000C000C0018001800304F
:101D10000060807F807F000000000000000F000F47
:101D2000000C000C000C000C000C000C000C000C53
:101D3000000C000C000C000C000C000C000F000F3D
:101D40000000001800180018000C000C000C000C1B
:101D50000006000600060006000300030003000062
:101D600000000000001E001E00060006000600061F
:101D70000006000600060006000600060006000633
:101D800000060006001E001E0000000C000C001ED5
:101D90000012003300338061806100000000000009
:101DA0000000000000000000000000000000000033
:101DB0000000000000000000000000000000000023
:101DC000000000000000000000000000E0FF000034
:101DD000000000380018000C0000000000000000A7
:101DE00000000000000000000000000000000000F3
:101DF0000000000000000000000000000000001FC4
:101E0000803F80618001801F803F80618063807F90
:101E1000C0380000000000000000006000600060AA
:101E20000060006E007F80738061806180618061EE
:101E30008073007F006E00000000000000000000C2
:101E4000000000000000001E003F80738061006001
:101E5000006080618073003F001E000000000000F1
:101E600000008001800180018001801D803F80731F
:101E700080618061806180618073803F801D00008F
:101E80000000000000000000000000000000001E34
:101E9000003F00738061807F807F00608071003F21
:101EA000001E0000000000000000C007C00F000C72
:101EB000000C807F807F000C000C000C000C000CDC
:101EC000000C000C000C00000000000000000000EE
:101ED00000000000801D803F807380618061806110
:101EE00080618073803F801D80018063007F003EA1
:101EF00000000060006000600060006F807F807103
:101F000080618061806180618061806180610000AA
:101F10000000000000000006000600000000003E77
:101F2000003E000600060006000600060006000649
:101F3000000600000000000000060006000000008F
:101F4000003E003E000600060006000600060006F1
:101F50000006000600060046007E003C000000600F
:101F6000006000600060806100630066006C007CBF
:101F70000076006300638061C06000000000000024
:101F80000000003E003E00060006000600060006B7
:101F90000006000600060006000600060006000017
:101FA000000000000000000000000000000080DDD4
:101FB000C0FFC0CEC0CCC0CCC0CCC0CCC0CCC0CC8C
:101FC000C0CC000000000000000000000000000085
:101FD0000000006F807F807180618061806180611E
:101FE000806180618061000000000000000000004E
:101FF000000000000000001E003F807380618061CF
:10200000806180618073003F001E000000000000BE
:102010000000000000000000006E007F80738061FF
:102020008061806180618073007F006E006000606D
:10203000006000600000000000000000801D803F84
:10204000807380618061806180618073803F801DCA
:10205000800180018001800100000000000000007C
:1020600000000067803F0039003000300030003051
:1020700000300030003000000000000000000000D0
:10208000000000000000001E803F80610060007FB3
:10209000803F80018061007F001E00000000000082
:1020A00000000000000800180018007F007F0018E2
:1020B00000180018001800180018801F800F00007A
:1020C000000000000000000000000000000080612F
:1020D0008061806180618061806180618063807FD8
:1020E000803D000000000000000000000000000033
:1020F0000000C060803180318031001B001B001B5C
:10210000000E000E000600000000000000000000AD
:1021100000000000000080DD80DD80DD00550055FE
:102120000055007700770022002200000000000028
:102130000000000000000000000080610033003358
:10214000001E000C000C001E0033003380610000F4
:1021500000000000000000000000000080618061BD
:10216000803100330033001B001B001B000E000EEB
:10217000000E001C007C0070000000000000000049
:102180000000C07FC07F800100030006000C001823
:102190000030C07FC07F0000000000008003800787
:1021A00000060006000600060006000E001C001CCB
:1021B000000E0006000600060006000680078003E9
:1021C00000060006000600060006000600060006DF
:1021D00000060006000600060006000600060006CF
:1021E000000600060038003C000C000C000C000C3F
:1021F000000C000E00070007000E000C000C000C85
:10220000000C000C003C0038000000000000000042
:102210000000000000008038807F004700000000C0
:1022200000000000000000000000000001020203A6
:102230000405060708090A0B0C0D0E0F101000000C
:102240000000000000000102030406070809000066
:1022500000000102030400007822000800000020B2
:10226000200000002801000898220008200000201B
:10227000B80A0000440100080B120000D014000846
:10228000000000000000000001000000100000003D
:08229000000000000024F4002E
:04000005080000ED02
:00000001FF
